{
  "contractName": "AuctionProxy",
  "abi": [
    {
      "constant": false,
      "inputs": [
        {
          "name": "auction",
          "type": "address"
        },
        {
          "name": "tub",
          "type": "address"
        },
        {
          "name": "cdp",
          "type": "bytes32"
        },
        {
          "name": "token",
          "type": "address"
        },
        {
          "name": "ask",
          "type": "uint256"
        },
        {
          "name": "expiry",
          "type": "uint256"
        },
        {
          "name": "salt",
          "type": "uint256"
        }
      ],
      "name": "createAuction",
      "outputs": [],
      "payable": false,
      "stateMutability": "nonpayable",
      "type": "function"
    }
  ],
  "bytecode": "0x608060405234801561001057600080fd5b50610320806100206000396000f300608060405260043610610041576000357c0100000000000000000000000000000000000000000000000000000000900463ffffffff1680636192de2814610046575b600080fd5b34801561005257600080fd5b506100f3600480360381019080803573ffffffffffffffffffffffffffffffffffffffff169060200190929190803573ffffffffffffffffffffffffffffffffffffffff1690602001909291908035600019169060200190929190803573ffffffffffffffffffffffffffffffffffffffff1690602001909291908035906020019092919080359060200190929190803590602001909291905050506100f5565b005b8673ffffffffffffffffffffffffffffffffffffffff1663bd5d7fd28633878787876040518763ffffffff167c01000000000000000000000000000000000000000000000000000000000281526004018087600019166000191681526020018673ffffffffffffffffffffffffffffffffffffffff1673ffffffffffffffffffffffffffffffffffffffff1681526020018573ffffffffffffffffffffffffffffffffffffffff1673ffffffffffffffffffffffffffffffffffffffff1681526020018481526020018381526020018281526020019650505050505050602060405180830381600087803b1580156101ec57600080fd5b505af1158015610200573d6000803e3d6000fd5b505050506040513d602081101561021657600080fd5b8101908080519060200190929190505050508573ffffffffffffffffffffffffffffffffffffffff1663baa8529c86896040518363ffffffff167c01000000000000000000000000000000000000000000000000000000000281526004018083600019166000191681526020018273ffffffffffffffffffffffffffffffffffffffff1673ffffffffffffffffffffffffffffffffffffffff16815260200192505050600060405180830381600087803b1580156102d357600080fd5b505af11580156102e7573d6000803e3d6000fd5b50505050505050505050505600a165627a7a72305820d79ac830e08f60ac01ee2bbdcc782ce4b091f8c0806cb3bf8180548e67ceb6e20029",
  "source": "pragma solidity ^0.4.24;\n\nimport \"./Auction.sol\";\nimport \"./lib/ITub.sol\";\n\ncontract AuctionProxy {\n    function createAuction(\n        address auction,\n        address tub,\n        bytes32 cdp,\n        address token,\n        uint256 ask,\n        uint256 expiry,\n        uint256 salt\n    ) public {\n        Auction(auction).listCDP(\n            cdp,\n            msg.sender,\n            token,\n            ask,\n            expiry,\n            salt\n        );\n        ITub(tub).give(cdp, auction);\n    }\n}",
  "sourcePath": "/Users/Michael/Projects/cdp.auction/cdp-auction/contracts/AuctionProxy.sol",
  "compiler": {
    "name": "solc",
    "version": "0.4.24+commit.e67f0147.Emscripten.clang"
  },
  "schemaVersion": "2.0.1",
  "updatedAt": "2019-01-10T05:08:16.636Z"
}