{
  "contractName": "Auction",
  "abi": [
    {
      "constant": true,
      "inputs": [
        {
          "name": "index",
          "type": "uint256"
        }
      ],
      "name": "getAuctionInfoByIndex",
      "outputs": [
        {
          "name": "id",
          "type": "bytes32"
        },
        {
          "name": "cdp",
          "type": "bytes32"
        },
        {
          "name": "seller",
          "type": "address"
        },
        {
          "name": "proxy",
          "type": "address"
        },
        {
          "name": "token",
          "type": "address"
        },
        {
          "name": "ask",
          "type": "uint256"
        },
        {
          "name": "expiry",
          "type": "uint256"
        },
        {
          "name": "state",
          "type": "uint8"
        }
      ],
      "payable": false,
      "stateMutability": "view",
      "type": "function"
    },
    {
      "constant": true,
      "inputs": [
        {
          "name": "auctioneer",
          "type": "address"
        }
      ],
      "name": "getAuctionsByUser",
      "outputs": [
        {
          "name": "",
          "type": "bytes32[]"
        }
      ],
      "payable": false,
      "stateMutability": "view",
      "type": "function"
    },
    {
      "constant": true,
      "inputs": [],
      "name": "tub",
      "outputs": [
        {
          "name": "",
          "type": "address"
        }
      ],
      "payable": false,
      "stateMutability": "view",
      "type": "function"
    },
    {
      "constant": false,
      "inputs": [],
      "name": "unpause",
      "outputs": [],
      "payable": false,
      "stateMutability": "nonpayable",
      "type": "function"
    },
    {
      "constant": true,
      "inputs": [
        {
          "name": "account",
          "type": "address"
        }
      ],
      "name": "isPauser",
      "outputs": [
        {
          "name": "",
          "type": "bool"
        }
      ],
      "payable": false,
      "stateMutability": "view",
      "type": "function"
    },
    {
      "constant": true,
      "inputs": [],
      "name": "paused",
      "outputs": [
        {
          "name": "",
          "type": "bool"
        }
      ],
      "payable": false,
      "stateMutability": "view",
      "type": "function"
    },
    {
      "constant": true,
      "inputs": [
        {
          "name": "bidId",
          "type": "bytes32"
        }
      ],
      "name": "getBidInfo",
      "outputs": [
        {
          "name": "cdp",
          "type": "bytes32"
        },
        {
          "name": "auctionId",
          "type": "bytes32"
        },
        {
          "name": "buyer",
          "type": "address"
        },
        {
          "name": "proxy",
          "type": "address"
        },
        {
          "name": "value",
          "type": "uint256"
        },
        {
          "name": "token",
          "type": "address"
        },
        {
          "name": "expiry",
          "type": "uint256"
        },
        {
          "name": "revoked",
          "type": "bool"
        },
        {
          "name": "won",
          "type": "bool"
        }
      ],
      "payable": false,
      "stateMutability": "view",
      "type": "function"
    },
    {
      "constant": false,
      "inputs": [],
      "name": "renouncePauser",
      "outputs": [],
      "payable": false,
      "stateMutability": "nonpayable",
      "type": "function"
    },
    {
      "constant": true,
      "inputs": [
        {
          "name": "bidder",
          "type": "address"
        }
      ],
      "name": "getBidsByUser",
      "outputs": [
        {
          "name": "",
          "type": "bytes32[]"
        }
      ],
      "payable": false,
      "stateMutability": "view",
      "type": "function"
    },
    {
      "constant": false,
      "inputs": [
        {
          "name": "account",
          "type": "address"
        }
      ],
      "name": "addPauser",
      "outputs": [],
      "payable": false,
      "stateMutability": "nonpayable",
      "type": "function"
    },
    {
      "constant": false,
      "inputs": [],
      "name": "pause",
      "outputs": [],
      "payable": false,
      "stateMutability": "nonpayable",
      "type": "function"
    },
    {
      "constant": true,
      "inputs": [
        {
          "name": "auctionId",
          "type": "bytes32"
        }
      ],
      "name": "getBids",
      "outputs": [
        {
          "name": "",
          "type": "bytes32[]"
        }
      ],
      "payable": false,
      "stateMutability": "view",
      "type": "function"
    },
    {
      "constant": true,
      "inputs": [
        {
          "name": "auctionId",
          "type": "bytes32"
        }
      ],
      "name": "getAuctionInfo",
      "outputs": [
        {
          "name": "number",
          "type": "uint256"
        },
        {
          "name": "cdp",
          "type": "bytes32"
        },
        {
          "name": "seller",
          "type": "address"
        },
        {
          "name": "proxy",
          "type": "address"
        },
        {
          "name": "token",
          "type": "address"
        },
        {
          "name": "ask",
          "type": "uint256"
        },
        {
          "name": "expiry",
          "type": "uint256"
        },
        {
          "name": "state",
          "type": "uint8"
        }
      ],
      "payable": false,
      "stateMutability": "view",
      "type": "function"
    },
    {
      "constant": true,
      "inputs": [],
      "name": "totalListings",
      "outputs": [
        {
          "name": "",
          "type": "uint256"
        }
      ],
      "payable": false,
      "stateMutability": "view",
      "type": "function"
    },
    {
      "constant": true,
      "inputs": [],
      "name": "fee",
      "outputs": [
        {
          "name": "",
          "type": "uint256"
        }
      ],
      "payable": false,
      "stateMutability": "view",
      "type": "function"
    },
    {
      "inputs": [
        {
          "name": "_tub",
          "type": "address"
        }
      ],
      "payable": false,
      "stateMutability": "nonpayable",
      "type": "constructor"
    },
    {
      "anonymous": false,
      "inputs": [
        {
          "indexed": false,
          "name": "cdp",
          "type": "bytes32"
        },
        {
          "indexed": true,
          "name": "seller",
          "type": "address"
        },
        {
          "indexed": true,
          "name": "proxy",
          "type": "address"
        },
        {
          "indexed": true,
          "name": "auctionId",
          "type": "bytes32"
        },
        {
          "indexed": false,
          "name": "token",
          "type": "address"
        },
        {
          "indexed": false,
          "name": "ask",
          "type": "uint256"
        },
        {
          "indexed": false,
          "name": "expiry",
          "type": "uint256"
        }
      ],
      "name": "LogAuctionEntry",
      "type": "event"
    },
    {
      "anonymous": false,
      "inputs": [
        {
          "indexed": true,
          "name": "auctionId",
          "type": "bytes32"
        },
        {
          "indexed": false,
          "name": "cdp",
          "type": "bytes32"
        },
        {
          "indexed": true,
          "name": "seller",
          "type": "address"
        },
        {
          "indexed": false,
          "name": "state",
          "type": "uint8"
        }
      ],
      "name": "LogEndedAuction",
      "type": "event"
    },
    {
      "anonymous": false,
      "inputs": [
        {
          "indexed": false,
          "name": "cdp",
          "type": "bytes32"
        },
        {
          "indexed": false,
          "name": "seller",
          "type": "address"
        },
        {
          "indexed": false,
          "name": "buyer",
          "type": "address"
        },
        {
          "indexed": true,
          "name": "auctionId",
          "type": "bytes32"
        },
        {
          "indexed": true,
          "name": "bidId",
          "type": "bytes32"
        },
        {
          "indexed": false,
          "name": "value",
          "type": "uint256"
        }
      ],
      "name": "LogConclusion",
      "type": "event"
    },
    {
      "anonymous": false,
      "inputs": [
        {
          "indexed": false,
          "name": "cdp",
          "type": "bytes32"
        },
        {
          "indexed": true,
          "name": "auctionId",
          "type": "bytes32"
        },
        {
          "indexed": true,
          "name": "buyer",
          "type": "address"
        },
        {
          "indexed": false,
          "name": "proxy",
          "type": "address"
        },
        {
          "indexed": false,
          "name": "value",
          "type": "uint256"
        },
        {
          "indexed": false,
          "name": "token",
          "type": "address"
        },
        {
          "indexed": true,
          "name": "bidId",
          "type": "bytes32"
        },
        {
          "indexed": false,
          "name": "expiryBlock",
          "type": "uint256"
        }
      ],
      "name": "LogSubmittedBid",
      "type": "event"
    },
    {
      "anonymous": false,
      "inputs": [
        {
          "indexed": false,
          "name": "cdp",
          "type": "bytes32"
        },
        {
          "indexed": true,
          "name": "buyer",
          "type": "address"
        },
        {
          "indexed": true,
          "name": "bidId",
          "type": "bytes32"
        },
        {
          "indexed": false,
          "name": "value",
          "type": "uint256"
        }
      ],
      "name": "LogRevokedBid",
      "type": "event"
    },
    {
      "anonymous": false,
      "inputs": [
        {
          "indexed": false,
          "name": "cdp",
          "type": "bytes32"
        },
        {
          "indexed": false,
          "name": "from",
          "type": "address"
        },
        {
          "indexed": false,
          "name": "to",
          "type": "address"
        }
      ],
      "name": "LogCDPTransfer",
      "type": "event"
    },
    {
      "anonymous": false,
      "inputs": [
        {
          "indexed": false,
          "name": "account",
          "type": "address"
        }
      ],
      "name": "Paused",
      "type": "event"
    },
    {
      "anonymous": false,
      "inputs": [
        {
          "indexed": false,
          "name": "account",
          "type": "address"
        }
      ],
      "name": "Unpaused",
      "type": "event"
    },
    {
      "anonymous": false,
      "inputs": [
        {
          "indexed": true,
          "name": "account",
          "type": "address"
        }
      ],
      "name": "PauserAdded",
      "type": "event"
    },
    {
      "anonymous": false,
      "inputs": [
        {
          "indexed": true,
          "name": "account",
          "type": "address"
        }
      ],
      "name": "PauserRemoved",
      "type": "event"
    },
    {
      "constant": false,
      "inputs": [
        {
          "name": "cdp",
          "type": "bytes32"
        },
        {
          "name": "seller",
          "type": "address"
        },
        {
          "name": "token",
          "type": "address"
        },
        {
          "name": "ask",
          "type": "uint256"
        },
        {
          "name": "expiry",
          "type": "uint256"
        },
        {
          "name": "salt",
          "type": "uint256"
        }
      ],
      "name": "listCDP",
      "outputs": [
        {
          "name": "",
          "type": "bytes32"
        }
      ],
      "payable": false,
      "stateMutability": "nonpayable",
      "type": "function"
    },
    {
      "constant": false,
      "inputs": [
        {
          "name": "auctionId",
          "type": "bytes32"
        },
        {
          "name": "bidId",
          "type": "bytes32"
        }
      ],
      "name": "resolveAuction",
      "outputs": [],
      "payable": false,
      "stateMutability": "nonpayable",
      "type": "function"
    },
    {
      "constant": false,
      "inputs": [
        {
          "name": "auctionId",
          "type": "bytes32"
        }
      ],
      "name": "cancelAuction",
      "outputs": [],
      "payable": false,
      "stateMutability": "nonpayable",
      "type": "function"
    },
    {
      "constant": false,
      "inputs": [
        {
          "name": "auctionId",
          "type": "bytes32"
        },
        {
          "name": "proxy",
          "type": "address"
        },
        {
          "name": "token",
          "type": "address"
        },
        {
          "name": "value",
          "type": "uint256"
        },
        {
          "name": "expiry",
          "type": "uint256"
        },
        {
          "name": "salt",
          "type": "uint256"
        }
      ],
      "name": "submitBid",
      "outputs": [
        {
          "name": "",
          "type": "bytes32"
        }
      ],
      "payable": false,
      "stateMutability": "nonpayable",
      "type": "function"
    },
    {
      "constant": false,
      "inputs": [
        {
          "name": "bidId",
          "type": "bytes32"
        }
      ],
      "name": "revokeBid",
      "outputs": [],
      "payable": false,
      "stateMutability": "nonpayable",
      "type": "function"
    },
    {
      "constant": false,
      "inputs": [
        {
          "name": "newFeeTaker",
          "type": "address"
        }
      ],
      "name": "setFeeTaker",
      "outputs": [],
      "payable": false,
      "stateMutability": "nonpayable",
      "type": "function"
    },
    {
      "constant": false,
      "inputs": [
        {
          "name": "newFee",
          "type": "uint256"
        }
      ],
      "name": "setFee",
      "outputs": [],
      "payable": false,
      "stateMutability": "nonpayable",
      "type": "function"
    }
  ],
  "bytecode": "0x608060405260006002553480156200001657600080fd5b5060405160208062004a1383398101806040528101908080519060200190929190505050620000543362000100640100000000026401000000009004565b6000600160006101000a81548160ff02191690831515021790555080600b60006101000a81548173ffffffffffffffffffffffffffffffffffffffff021916908373ffffffffffffffffffffffffffffffffffffffff16021790555033600960006101000a81548173ffffffffffffffffffffffffffffffffffffffff021916908373ffffffffffffffffffffffffffffffffffffffff1602179055506000600a8190555050620002c2565b620001248160006200016a6401000000000262004522179091906401000000009004565b8073ffffffffffffffffffffffffffffffffffffffff167f6719d08c1888103bea251a4ed56406bd0c3e69723c8a1686e017e7bbe159b6f860405160405180910390a250565b600073ffffffffffffffffffffffffffffffffffffffff168173ffffffffffffffffffffffffffffffffffffffff1614151515620001a757600080fd5b620001c282826200022d640100000000026401000000009004565b151515620001cf57600080fd5b60018260000160008373ffffffffffffffffffffffffffffffffffffffff1673ffffffffffffffffffffffffffffffffffffffff16815260200190815260200160002060006101000a81548160ff0219169083151502179055505050565b60008073ffffffffffffffffffffffffffffffffffffffff168273ffffffffffffffffffffffffffffffffffffffff16141515156200026b57600080fd5b8260000160008373ffffffffffffffffffffffffffffffffffffffff1673ffffffffffffffffffffffffffffffffffffffff16815260200190815260200160002060009054906101000a900460ff16905092915050565b61474180620002d26000396000f300608060405260043610610128576000357c0100000000000000000000000000000000000000000000000000000000900463ffffffff1680630c49c1f91461012d57806315dde39e1461016c578063319a709f1461028057806334e70cc2146103185780633ef4d1301461036f5780633f4ba83a146103a057806346fbf68e146103b75780634ec5908d146104125780635c975abb14610455578063691844421461048457806369fe0e2d1461059d5780636ef8d66d146105ca57806382c10346146105e157806382dc1ec4146106795780638456cb59146106bc5780639d4f988b146106d3578063b937c74d14610759578063bd5d7fd21461078a578063bf9fc26c14610835578063c78b616c14610945578063cec5414414610970578063ddca3f4314610a1b575b600080fd5b34801561013957600080fd5b5061016a60048036038101908080356000191690602001909291908035600019169060200190929190505050610a46565b005b34801561017857600080fd5b5061019760048036038101908080359060200190929190505050611392565b60405180896000191660001916815260200188600019166000191681526020018773ffffffffffffffffffffffffffffffffffffffff1673ffffffffffffffffffffffffffffffffffffffff1681526020018673ffffffffffffffffffffffffffffffffffffffff1673ffffffffffffffffffffffffffffffffffffffff1681526020018573ffffffffffffffffffffffffffffffffffffffff1673ffffffffffffffffffffffffffffffffffffffff16815260200184815260200183815260200182600481111561026557fe5b60ff1681526020019850505050505050505060405180910390f35b34801561028c57600080fd5b506102c1600480360381019080803573ffffffffffffffffffffffffffffffffffffffff1690602001909291905050506114de565b6040518080602001828103825283818151815260200191508051906020019060200280838360005b838110156103045780820151818401526020810190506102e9565b505050509050019250505060405180910390f35b34801561032457600080fd5b5061032d611579565b604051808273ffffffffffffffffffffffffffffffffffffffff1673ffffffffffffffffffffffffffffffffffffffff16815260200191505060405180910390f35b34801561037b57600080fd5b5061039e600480360381019080803560001916906020019092919050505061159f565b005b3480156103ac57600080fd5b506103b5611a44565b005b3480156103c357600080fd5b506103f8600480360381019080803573ffffffffffffffffffffffffffffffffffffffff169060200190929190505050611af3565b604051808215151515815260200191505060405180910390f35b34801561041e57600080fd5b50610453600480360381019080803573ffffffffffffffffffffffffffffffffffffffff169060200190929190505050611b10565b005b34801561046157600080fd5b5061046a611b68565b604051808215151515815260200191505060405180910390f35b34801561049057600080fd5b506104b36004803603810190808035600019169060200190929190505050611b7f565b604051808a6000191660001916815260200189600019166000191681526020018873ffffffffffffffffffffffffffffffffffffffff1673ffffffffffffffffffffffffffffffffffffffff1681526020018773ffffffffffffffffffffffffffffffffffffffff1673ffffffffffffffffffffffffffffffffffffffff1681526020018681526020018573ffffffffffffffffffffffffffffffffffffffff1673ffffffffffffffffffffffffffffffffffffffff1681526020018481526020018315151515815260200182151515158152602001995050505050505050505060405180910390f35b3480156105a957600080fd5b506105c860048036038101908080359060200190929190505050611d3d565b005b3480156105d657600080fd5b506105df611d5b565b005b3480156105ed57600080fd5b50610622600480360381019080803573ffffffffffffffffffffffffffffffffffffffff169060200190929190505050611d66565b6040518080602001828103825283818151815260200191508051906020019060200280838360005b8381101561066557808201518184015260208101905061064a565b505050509050019250505060405180910390f35b34801561068557600080fd5b506106ba600480360381019080803573ffffffffffffffffffffffffffffffffffffffff169060200190929190505050611e01565b005b3480156106c857600080fd5b506106d1611e21565b005b3480156106df57600080fd5b506107026004803603810190808035600019169060200190929190505050611ed0565b6040518080602001828103825283818151815260200191508051906020019060200280838360005b8381101561074557808201518184015260208101905061072a565b505050509050019250505060405180910390f35b34801561076557600080fd5b506107886004803603810190808035600019169060200190929190505050611f47565b005b34801561079657600080fd5b506108176004803603810190808035600019169060200190929190803573ffffffffffffffffffffffffffffffffffffffff169060200190929190803573ffffffffffffffffffffffffffffffffffffffff1690602001909291908035906020019092919080359060200190929190803590602001909291905050506124ff565b60405180826000191660001916815260200191505060405180910390f35b34801561084157600080fd5b506108646004803603810190808035600019169060200190929190505050612a76565b6040518089815260200188600019166000191681526020018773ffffffffffffffffffffffffffffffffffffffff1673ffffffffffffffffffffffffffffffffffffffff1681526020018673ffffffffffffffffffffffffffffffffffffffff1673ffffffffffffffffffffffffffffffffffffffff1681526020018573ffffffffffffffffffffffffffffffffffffffff1673ffffffffffffffffffffffffffffffffffffffff16815260200184815260200183815260200182600481111561092a57fe5b60ff1681526020019850505050505050505060405180910390f35b34801561095157600080fd5b5061095a612c02565b6040518082815260200191505060405180910390f35b34801561097c57600080fd5b506109fd6004803603810190808035600019169060200190929190803573ffffffffffffffffffffffffffffffffffffffff169060200190929190803573ffffffffffffffffffffffffffffffffffffffff169060200190929190803590602001909291908035906020019092919080359060200190929190505050612c08565b60405180826000191660001916815260200191505060405180910390f35b348015610a2757600080fd5b50610a30613798565b6040518082815260200191505060405180910390f35b610a4e6145d2565b610a56614672565b6003600085600019166000191681526020019081526020016000206101206040519081016040529081600082015481526020016001820154600019166000191681526020016002820160009054906101000a900473ffffffffffffffffffffffffffffffffffffffff1673ffffffffffffffffffffffffffffffffffffffff1673ffffffffffffffffffffffffffffffffffffffff1681526020016003820160009054906101000a900473ffffffffffffffffffffffffffffffffffffffff1673ffffffffffffffffffffffffffffffffffffffff1673ffffffffffffffffffffffffffffffffffffffff1681526020016004820160009054906101000a900473ffffffffffffffffffffffffffffffffffffffff1673ffffffffffffffffffffffffffffffffffffffff1673ffffffffffffffffffffffffffffffffffffffff16815260200160058201548152602001600682015460001916600019168152602001600782015481526020016008820160009054906101000a900460ff166004811115610be057fe5b6004811115610beb57fe5b8152505091503073ffffffffffffffffffffffffffffffffffffffff16600b60009054906101000a900473ffffffffffffffffffffffffffffffffffffffff1673ffffffffffffffffffffffffffffffffffffffff1663de5f551784602001516040518263ffffffff167c0100000000000000000000000000000000000000000000000000000000028152600401808260001916600019168152602001915050602060405180830381600087803b158015610ca557600080fd5b505af1158015610cb9573d6000803e3d6000fd5b505050506040513d6020811015610ccf57600080fd5b810190808051906020019092919050505073ffffffffffffffffffffffffffffffffffffffff16141515610d6b576040517f08c379a00000000000000000000000000000000000000000000000000000000081526004018080602001828103825260188152602001807f636470206e6f74206f776e65642062792061756374696f6e000000000000000081525060200191505060405180910390fd5b3373ffffffffffffffffffffffffffffffffffffffff16826040015173ffffffffffffffffffffffffffffffffffffffff16141515610e12576040517f08c379a00000000000000000000000000000000000000000000000000000000081526004018080602001828103825260158152602001807f63616c6c6572206d7573742062652073656c6c6572000000000000000000000081525060200191505060405180910390fd5b60016004811115610e1f57fe5b8261010001516004811115610e3057fe5b141515610ea5576040517f08c379a00000000000000000000000000000000000000000000000000000000081526004018080602001828103825260138152602001807f61756374696f6e206973206e6f74206c6976650000000000000000000000000081525060200191505060405180910390fd5b8160e0015143101515610ec257610ebd82600461379e565b61138c565b60066000846000191660001916815260200190815260200160002061014060405190810160405290816000820154600019166000191681526020016001820154600019166000191681526020016002820160009054906101000a900473ffffffffffffffffffffffffffffffffffffffff1673ffffffffffffffffffffffffffffffffffffffff1673ffffffffffffffffffffffffffffffffffffffff1681526020016003820160009054906101000a900473ffffffffffffffffffffffffffffffffffffffff1673ffffffffffffffffffffffffffffffffffffffff1673ffffffffffffffffffffffffffffffffffffffff168152602001600482015481526020016005820160009054906101000a900473ffffffffffffffffffffffffffffffffffffffff1673ffffffffffffffffffffffffffffffffffffffff1673ffffffffffffffffffffffffffffffffffffffff168152602001600682015460001916600019168152602001600782015481526020016008820160009054906101000a900460ff161515151581526020016008820160019054906101000a900460ff16151515158152505090508061012001511515156110e9576040517f08c379a000000000000000000000000000000000000000000000000000000000815260040180806020018281038252600f8152602001807f62696420776173207265766f6b6564000000000000000000000000000000000081525060200191505060405180910390fd5b6000816080015114151515611166576040517f08c379a00000000000000000000000000000000000000000000000000000000081526004018080602001828103825260188152602001807f6269642076616c75652063616e6e6f74206265207a65726f000000000000000081525060200191505060405180910390fd5b8060e00151431015156111e1576040517f08c379a000000000000000000000000000000000000000000000000000000000815260040180806020018281038252600b8152602001807f626964206578706972656400000000000000000000000000000000000000000081525060200191505060405180910390fd5b60018161010001901515908115158152505080600660008560001916600019168152602001908152602001600020600082015181600001906000191690556020820151816001019060001916905560408201518160020160006101000a81548173ffffffffffffffffffffffffffffffffffffffff021916908373ffffffffffffffffffffffffffffffffffffffff16021790555060608201518160030160006101000a81548173ffffffffffffffffffffffffffffffffffffffff021916908373ffffffffffffffffffffffffffffffffffffffff1602179055506080820151816004015560a08201518160050160006101000a81548173ffffffffffffffffffffffffffffffffffffffff021916908373ffffffffffffffffffffffffffffffffffffffff16021790555060c0820151816006019060001916905560e082015181600701556101008201518160080160006101000a81548160ff0219169083151502179055506101208201518160080160016101000a81548160ff02191690831515021790555090505061138b8284836040015184606001518560a001518660800151613840565b5b50505050565b600080600080600080600080600460008a8152602001908152602001600020600601549750600460008a8152602001908152602001600020600101549650600460008a815260200190815260200160002060020160009054906101000a900473ffffffffffffffffffffffffffffffffffffffff169550600460008a815260200190815260200160002060030160009054906101000a900473ffffffffffffffffffffffffffffffffffffffff169450600460008a815260200190815260200160002060040160009054906101000a900473ffffffffffffffffffffffffffffffffffffffff169350600460008a8152602001908152602001600020600501549250600460008a8152602001908152602001600020600701549150600460008a815260200190815260200160002060080160009054906101000a900460ff169050919395975091939597565b6060600560008373ffffffffffffffffffffffffffffffffffffffff1673ffffffffffffffffffffffffffffffffffffffff16815260200190815260200160002080548060200260200160405190810160405280929190818152602001828054801561156d57602002820191906000526020600020905b81546000191681526020019060010190808311611555575b50505050509050919050565b600b60009054906101000a900473ffffffffffffffffffffffffffffffffffffffff1681565b6115a76145d2565b60006003600084600019166000191681526020019081526020016000206101206040519081016040529081600082015481526020016001820154600019166000191681526020016002820160009054906101000a900473ffffffffffffffffffffffffffffffffffffffff1673ffffffffffffffffffffffffffffffffffffffff1673ffffffffffffffffffffffffffffffffffffffff1681526020016003820160009054906101000a900473ffffffffffffffffffffffffffffffffffffffff1673ffffffffffffffffffffffffffffffffffffffff1673ffffffffffffffffffffffffffffffffffffffff1681526020016004820160009054906101000a900473ffffffffffffffffffffffffffffffffffffffff1673ffffffffffffffffffffffffffffffffffffffff1673ffffffffffffffffffffffffffffffffffffffff16815260200160058201548152602001600682015460001916600019168152602001600782015481526020016008820160009054906101000a900460ff16600481111561173357fe5b600481111561173e57fe5b8152505091503073ffffffffffffffffffffffffffffffffffffffff16600b60009054906101000a900473ffffffffffffffffffffffffffffffffffffffff1673ffffffffffffffffffffffffffffffffffffffff1663de5f551784602001516040518263ffffffff167c0100000000000000000000000000000000000000000000000000000000028152600401808260001916600019168152602001915050602060405180830381600087803b1580156117f857600080fd5b505af115801561180c573d6000803e3d6000fd5b505050506040513d602081101561182257600080fd5b810190808051906020019092919050505073ffffffffffffffffffffffffffffffffffffffff161415156118be576040517f08c379a00000000000000000000000000000000000000000000000000000000081526004018080602001828103825260188152602001807f636470206e6f74206f776e65642062792061756374696f6e000000000000000081525060200191505060405180910390fd5b600060048111156118cb57fe5b82610100015160048111156118dc57fe5b148061190257506004808111156118ef57fe5b826101000151600481111561190057fe5b145b1515611976576040517f08c379a000000000000000000000000000000000000000000000000000000000815260040180806020018281038252601a8152602001807f63616e6e6f742063616e63656c206c6976652061756374696f6e00000000000081525060200191505060405180910390fd5b816040015173ffffffffffffffffffffffffffffffffffffffff163373ffffffffffffffffffffffffffffffffffffffff16141515611a1d576040517f08c379a00000000000000000000000000000000000000000000000000000000081526004018080602001828103825260158152602001807f63616c6c6572206d7573742062652073656c6c6572000000000000000000000081525060200191505060405180910390fd5b8160e00151431015611a30576002611a33565b60045b9050611a3f828261379e565b505050565b611a4d33611af3565b1515611a5857600080fd5b600160009054906101000a900460ff161515611a7357600080fd5b6000600160006101000a81548160ff0219169083151502179055507f5db9ee0a495bf2e6ff9c91a7834c1ba4fdd244a5e8aa4e537bd38aeae4b073aa33604051808273ffffffffffffffffffffffffffffffffffffffff1673ffffffffffffffffffffffffffffffffffffffff16815260200191505060405180910390a1565b6000611b09826000613b3790919063ffffffff16565b9050919050565b611b1933611af3565b1515611b2457600080fd5b80600960006101000a81548173ffffffffffffffffffffffffffffffffffffffff021916908373ffffffffffffffffffffffffffffffffffffffff16021790555050565b6000600160009054906101000a900460ff16905090565b6000806000806000806000806000600660008b60001916600019168152602001908152602001600020600001549850600660008b60001916600019168152602001908152602001600020600101549750600660008b6000191660001916815260200190815260200160002060020160009054906101000a900473ffffffffffffffffffffffffffffffffffffffff169650600660008b6000191660001916815260200190815260200160002060030160009054906101000a900473ffffffffffffffffffffffffffffffffffffffff169550600660008b60001916600019168152602001908152602001600020600401549450600660008b6000191660001916815260200190815260200160002060050160009054906101000a900473ffffffffffffffffffffffffffffffffffffffff169350600660008b60001916600019168152602001908152602001600020600701549250600660008b6000191660001916815260200190815260200160002060080160019054906101000a900460ff169150600660008b6000191660001916815260200190815260200160002060080160009054906101000a900460ff1690509193959799909294969850565b611d4633611af3565b1515611d5157600080fd5b80600a8190555050565b611d6433613bcb565b565b6060600860008373ffffffffffffffffffffffffffffffffffffffff1673ffffffffffffffffffffffffffffffffffffffff168152602001908152602001600020805480602002602001604051908101604052809291908181526020018280548015611df557602002820191906000526020600020905b81546000191681526020019060010190808311611ddd575b50505050509050919050565b611e0a33611af3565b1515611e1557600080fd5b611e1e81613c25565b50565b611e2a33611af3565b1515611e3557600080fd5b600160009054906101000a900460ff16151515611e5157600080fd5b60018060006101000a81548160ff0219169083151502179055507f62e78cea01bee320cd4e420270b5ea74000d11b0c9f74754ebdbfc544b05a25833604051808273ffffffffffffffffffffffffffffffffffffffff1673ffffffffffffffffffffffffffffffffffffffff16815260200191505060405180910390a1565b6060600760008360001916600019168152602001908152602001600020805480602002602001604051908101604052809291908181526020018280548015611f3b57602002820191906000526020600020905b81546000191681526020019060010190808311611f23575b50505050509050919050565b611f4f614672565b60066000836000191660001916815260200190815260200160002061014060405190810160405290816000820154600019166000191681526020016001820154600019166000191681526020016002820160009054906101000a900473ffffffffffffffffffffffffffffffffffffffff1673ffffffffffffffffffffffffffffffffffffffff1673ffffffffffffffffffffffffffffffffffffffff1681526020016003820160009054906101000a900473ffffffffffffffffffffffffffffffffffffffff1673ffffffffffffffffffffffffffffffffffffffff1673ffffffffffffffffffffffffffffffffffffffff168152602001600482015481526020016005820160009054906101000a900473ffffffffffffffffffffffffffffffffffffffff1673ffffffffffffffffffffffffffffffffffffffff1673ffffffffffffffffffffffffffffffffffffffff168152602001600682015460001916600019168152602001600782015481526020016008820160009054906101000a900460ff161515151581526020016008820160019054906101000a900460ff1615151515815250509050806040015173ffffffffffffffffffffffffffffffffffffffff163373ffffffffffffffffffffffffffffffffffffffff161415156121a2576040517f08c379a00000000000000000000000000000000000000000000000000000000081526004018080602001828103825260148152602001807f63616c6c6572206d75737420626520627579657200000000000000000000000081525060200191505060405180910390fd5b80610120015115151561221d576040517f08c379a00000000000000000000000000000000000000000000000000000000081526004018080602001828103825260138152602001807f62696420616c7265616479207265766f6b65640000000000000000000000000081525060200191505060405180910390fd5b60018161012001901515908115158152505080600660008460001916600019168152602001908152602001600020600082015181600001906000191690556020820151816001019060001916905560408201518160020160006101000a81548173ffffffffffffffffffffffffffffffffffffffff021916908373ffffffffffffffffffffffffffffffffffffffff16021790555060608201518160030160006101000a81548173ffffffffffffffffffffffffffffffffffffffff021916908373ffffffffffffffffffffffffffffffffffffffff1602179055506080820151816004015560a08201518160050160006101000a81548173ffffffffffffffffffffffffffffffffffffffff021916908373ffffffffffffffffffffffffffffffffffffffff16021790555060c0820151816006019060001916905560e082015181600701556101008201518160080160006101000a81548160ff0219169083151502179055506101208201518160080160016101000a81548160ff0219169083151502179055509050508060a0015173ffffffffffffffffffffffffffffffffffffffff1663a9059cbb3383608001516040518363ffffffff167c0100000000000000000000000000000000000000000000000000000000028152600401808373ffffffffffffffffffffffffffffffffffffffff1673ffffffffffffffffffffffffffffffffffffffff16815260200182815260200192505050602060405180830381600087803b15801561245457600080fd5b505af1158015612468573d6000803e3d6000fd5b505050506040513d602081101561247e57600080fd5b81019080805190602001909291905050505081600019163373ffffffffffffffffffffffffffffffffffffffff167f5e70a459fcc3a57752dd01a127dcbdcd9a961a88b5752ce59840808ce2fcd77b836000015184608001516040518083600019166000191681526020018281526020019250505060405180910390a35050565b60008061250a6145d2565b600160009054906101000a900460ff1615151561252657600080fd5b3073ffffffffffffffffffffffffffffffffffffffff16600b60009054906101000a900473ffffffffffffffffffffffffffffffffffffffff1673ffffffffffffffffffffffffffffffffffffffff1663de5f55178b6040518263ffffffff167c0100000000000000000000000000000000000000000000000000000000028152600401808260001916600019168152602001915050602060405180830381600087803b1580156125d657600080fd5b505af11580156125ea573d6000803e3d6000fd5b505050506040513d602081101561260057600080fd5b810190808051906020019092919050505073ffffffffffffffffffffffffffffffffffffffff161415151561269d576040517f08c379a00000000000000000000000000000000000000000000000000000000081526004018080602001828103825260168152602001807f63647020616c7265616479206f6e2061756374696f6e0000000000000000000081525060200191505060405180910390fd5b8773ffffffffffffffffffffffffffffffffffffffff163373ffffffffffffffffffffffffffffffffffffffff16638da5cb5b6040518163ffffffff167c0100000000000000000000000000000000000000000000000000000000028152600401602060405180830381600087803b15801561271857600080fd5b505af115801561272c573d6000803e3d6000fd5b505050506040513d602081101561274257600080fd5b810190808051906020019092919050505073ffffffffffffffffffffffffffffffffffffffff161415156127de576040517f08c379a00000000000000000000000000000000000000000000000000000000081526004018080602001828103825260158152602001807f70726f78792d73656c6c6572206d69736d61746368000000000000000000000081525060200191505060405180910390fd5b6127f96002600081546001019190508190558a338888613c7f565b9150600060010260001916600360008460001916600019168152602001908152602001600020600601546000191614151561289c576040517f08c379a00000000000000000000000000000000000000000000000000000000081526004018080602001828103825260168152602001807f61756374696f6e496420616c726561647920757365640000000000000000000081525060200191505060405180910390fd5b6101206040519081016040528060025481526020018a6000191681526020018973ffffffffffffffffffffffffffffffffffffffff1681526020013373ffffffffffffffffffffffffffffffffffffffff1681526020018873ffffffffffffffffffffffffffffffffffffffff168152602001878152602001836000191681526020018681526020016000600481111561293257fe5b8152509050612942816000613d71565b600560008973ffffffffffffffffffffffffffffffffffffffff1673ffffffffffffffffffffffffffffffffffffffff16815260200190815260200160002082908060018154018082558091505090600182039060005260206000200160009091929091909150906000191690555081600019163373ffffffffffffffffffffffffffffffffffffffff168973ffffffffffffffffffffffffffffffffffffffff167f9854fd1cce2549a278479ef1f1c5a600eac4070109cea825726a76229c585d538c8b8b8b6040518085600019166000191681526020018473ffffffffffffffffffffffffffffffffffffffff1673ffffffffffffffffffffffffffffffffffffffff16815260200183815260200182815260200194505050505060405180910390a481925050509695505050505050565b600080600080600080600080600360008a60001916600019168152602001908152602001600020600001549750600360008a60001916600019168152602001908152602001600020600101549650600360008a6000191660001916815260200190815260200160002060020160009054906101000a900473ffffffffffffffffffffffffffffffffffffffff169550600360008a6000191660001916815260200190815260200160002060030160009054906101000a900473ffffffffffffffffffffffffffffffffffffffff169450600360008a6000191660001916815260200190815260200160002060040160009054906101000a900473ffffffffffffffffffffffffffffffffffffffff169350600360008a60001916600019168152602001908152602001600020600501549250600360008a60001916600019168152602001908152602001600020600701549150600360008a6000191660001916815260200190815260200160002060080160009054906101000a900460ff169050919395975091939597565b60025481565b6000612c126145d2565b6000612c1c614672565b600160009054906101000a900460ff16151515612c3857600080fd5b600360008b600019166000191681526020019081526020016000206101206040519081016040529081600082015481526020016001820154600019166000191681526020016002820160009054906101000a900473ffffffffffffffffffffffffffffffffffffffff1673ffffffffffffffffffffffffffffffffffffffff1673ffffffffffffffffffffffffffffffffffffffff1681526020016003820160009054906101000a900473ffffffffffffffffffffffffffffffffffffffff1673ffffffffffffffffffffffffffffffffffffffff1673ffffffffffffffffffffffffffffffffffffffff1681526020016004820160009054906101000a900473ffffffffffffffffffffffffffffffffffffffff1673ffffffffffffffffffffffffffffffffffffffff1673ffffffffffffffffffffffffffffffffffffffff16815260200160058201548152602001600682015460001916600019168152602001600782015481526020016008820160009054906101000a900460ff166004811115612dc257fe5b6004811115612dcd57fe5b8152505092503073ffffffffffffffffffffffffffffffffffffffff16600b60009054906101000a900473ffffffffffffffffffffffffffffffffffffffff1673ffffffffffffffffffffffffffffffffffffffff1663de5f551785602001516040518263ffffffff167c0100000000000000000000000000000000000000000000000000000000028152600401808260001916600019168152602001915050602060405180830381600087803b158015612e8757600080fd5b505af1158015612e9b573d6000803e3d6000fd5b505050506040513d6020811015612eb157600080fd5b810190808051906020019092919050505073ffffffffffffffffffffffffffffffffffffffff16141515612f4d576040517f08c379a00000000000000000000000000000000000000000000000000000000081526004018080602001828103825260188152602001807f636470206e6f74206f776e65642062792061756374696f6e000000000000000081525060200191505060405180910390fd5b3373ffffffffffffffffffffffffffffffffffffffff168973ffffffffffffffffffffffffffffffffffffffff16638da5cb5b6040518163ffffffff167c0100000000000000000000000000000000000000000000000000000000028152600401602060405180830381600087803b158015612fc857600080fd5b505af1158015612fdc573d6000803e3d6000fd5b505050506040513d6020811015612ff257600080fd5b810190808051906020019092919050505073ffffffffffffffffffffffffffffffffffffffff1614151561308e576040517f08c379a00000000000000000000000000000000000000000000000000000000081526004018080602001828103825260158152602001807f70726f78792d626964646572206d69736d61746368000000000000000000000081525060200191505060405180910390fd5b6001600481111561309b57fe5b83610100015160048111156130ac57fe5b14806130d35750600060048111156130c057fe5b83610100015160048111156130d157fe5b145b1515613147576040517f08c379a00000000000000000000000000000000000000000000000000000000081526004018080602001828103825260148152602001807f61756374696f6e206d757374206265206c69766500000000000000000000000081525060200191505060405180910390fd5b8260e001514310151561316b5761315f83600461379e565b6000600102935061378b565b6000600481111561317857fe5b836101000151600481111561318957fe5b141561319b5761319a836001613d71565b5b6131b38a3389438a8115156131ac57fe5b0689614050565b91506000600102600019166006600084600019166000191681526020019081526020016000206006015460001916141515613256576040517f08c379a00000000000000000000000000000000000000000000000000000000081526004018080602001828103825260128152602001807f626964496420616c72656164792075736564000000000000000000000000000081525060200191505060405180910390fd5b6101406040519081016040528084602001516000191681526020018b6000191681526020013373ffffffffffffffffffffffffffffffffffffffff1681526020018a73ffffffffffffffffffffffffffffffffffffffff1681526020018881526020018973ffffffffffffffffffffffffffffffffffffffff168152602001836000191681526020018781526020016000151581526020016000151581525090508773ffffffffffffffffffffffffffffffffffffffff166323b872dd33308a6040518463ffffffff167c0100000000000000000000000000000000000000000000000000000000028152600401808473ffffffffffffffffffffffffffffffffffffffff1673ffffffffffffffffffffffffffffffffffffffff1681526020018373ffffffffffffffffffffffffffffffffffffffff1673ffffffffffffffffffffffffffffffffffffffff1681526020018281526020019350505050602060405180830381600087803b1580156133ce57600080fd5b505af11580156133e2573d6000803e3d6000fd5b505050506040513d60208110156133f857600080fd5b8101908080519060200190929190505050508260a00151871015801561344d5750826080015173ffffffffffffffffffffffffffffffffffffffff168873ffffffffffffffffffffffffffffffffffffffff16145b15613477576001816101000190151590811515815250506134768383338c87608001518c613840565b5b80600660008460001916600019168152602001908152602001600020600082015181600001906000191690556020820151816001019060001916905560408201518160020160006101000a81548173ffffffffffffffffffffffffffffffffffffffff021916908373ffffffffffffffffffffffffffffffffffffffff16021790555060608201518160030160006101000a81548173ffffffffffffffffffffffffffffffffffffffff021916908373ffffffffffffffffffffffffffffffffffffffff1602179055506080820151816004015560a08201518160050160006101000a81548173ffffffffffffffffffffffffffffffffffffffff021916908373ffffffffffffffffffffffffffffffffffffffff16021790555060c0820151816006019060001916905560e082015181600701556101008201518160080160006101000a81548160ff0219169083151502179055506101208201518160080160016101000a81548160ff021916908315150217905550905050600860003373ffffffffffffffffffffffffffffffffffffffff1673ffffffffffffffffffffffffffffffffffffffff168152602001908152602001600020829080600181540180825580915050906001820390600052602060002001600090919290919091509060001916905550600760008b6000191660001916815260200190815260200160002082908060018154018082558091505090600182039060005260206000200160009091929091909150906000191690555081600019163373ffffffffffffffffffffffffffffffffffffffff168b600019167fa9cfb613ce38b3a98e0ca6f7606012ace551c401170fff036a1f14b0885daf3b86602001518d8c8e8d6040518086600019166000191681526020018573ffffffffffffffffffffffffffffffffffffffff1673ffffffffffffffffffffffffffffffffffffffff1681526020018481526020018373ffffffffffffffffffffffffffffffffffffffff1673ffffffffffffffffffffffffffffffffffffffff1681526020018281526020019550505050505060405180910390a48193505b5050509695505050505050565b600a5481565b6137a88282613d71565b6137bf826020015183606001518460400151614142565b816040015173ffffffffffffffffffffffffffffffffffffffff168260c00151600019167f2beaf12c509a64c5c177c988e1af77d0cfdcc6db16032b49be6cdd547bcf1ed684602001518460405180836000191660001916815260200182600481111561382857fe5b60ff1681526020019250505060405180910390a35050565b6000613857600a548361441490919063ffffffff16565b90508273ffffffffffffffffffffffffffffffffffffffff1663a9059cbb600960009054906101000a900473ffffffffffffffffffffffffffffffffffffffff16836040518363ffffffff167c0100000000000000000000000000000000000000000000000000000000028152600401808373ffffffffffffffffffffffffffffffffffffffff1673ffffffffffffffffffffffffffffffffffffffff16815260200182815260200192505050602060405180830381600087803b15801561391e57600080fd5b505af1158015613932573d6000803e3d6000fd5b505050506040513d602081101561394857600080fd5b8101908080519060200190929190505050508273ffffffffffffffffffffffffffffffffffffffff1663a9059cbb886040015161398e848661445290919063ffffffff16565b6040518363ffffffff167c0100000000000000000000000000000000000000000000000000000000028152600401808373ffffffffffffffffffffffffffffffffffffffff1673ffffffffffffffffffffffffffffffffffffffff16815260200182815260200192505050602060405180830381600087803b158015613a1357600080fd5b505af1158015613a27573d6000803e3d6000fd5b505050506040513d6020811015613a3d57600080fd5b810190808051906020019092919050505050613a5e87602001518587614142565b613a69876003613d71565b85600019168760c00151600019167f5fd5b3477d8574190dce6c477302bd8ee401fc2d5e11fa878df83e73086a22cc8960200151888b60400151876040518085600019166000191681526020018473ffffffffffffffffffffffffffffffffffffffff1673ffffffffffffffffffffffffffffffffffffffff1681526020018373ffffffffffffffffffffffffffffffffffffffff1673ffffffffffffffffffffffffffffffffffffffff16815260200182815260200194505050505060405180910390a350505050505050565b60008073ffffffffffffffffffffffffffffffffffffffff168273ffffffffffffffffffffffffffffffffffffffff1614151515613b7457600080fd5b8260000160008373ffffffffffffffffffffffffffffffffffffffff1673ffffffffffffffffffffffffffffffffffffffff16815260200190815260200160002060009054906101000a900460ff16905092915050565b613bdf81600061447390919063ffffffff16565b8073ffffffffffffffffffffffffffffffffffffffff167fcd265ebaf09df2871cc7bd4133404a235ba12eff2041bb89d9c714a2621c7c7e60405160405180910390a250565b613c3981600061452290919063ffffffff16565b8073ffffffffffffffffffffffffffffffffffffffff167f6719d08c1888103bea251a4ed56406bd0c3e69723c8a1686e017e7bbe159b6f860405160405180910390a250565b600085858585856040516020018086815260200185600019166000191681526020018473ffffffffffffffffffffffffffffffffffffffff1673ffffffffffffffffffffffffffffffffffffffff166c01000000000000000000000000028152601401838152602001828152602001955050505050506040516020818303038152906040526040518082805190602001908083835b602083101515613d395780518252602082019150602081019050602083039250613d14565b6001836020036101000a0380198251168184511680821785525050505050509050019150506040518091039020905095945050505050565b808261010001906004811115613d8357fe5b90816004811115613d9057fe5b8152505081600360008460c0015160001916600019168152602001908152602001600020600082015181600001556020820151816001019060001916905560408201518160020160006101000a81548173ffffffffffffffffffffffffffffffffffffffff021916908373ffffffffffffffffffffffffffffffffffffffff16021790555060608201518160030160006101000a81548173ffffffffffffffffffffffffffffffffffffffff021916908373ffffffffffffffffffffffffffffffffffffffff16021790555060808201518160040160006101000a81548173ffffffffffffffffffffffffffffffffffffffff021916908373ffffffffffffffffffffffffffffffffffffffff16021790555060a0820151816005015560c0820151816006019060001916905560e082015181600701556101008201518160080160006101000a81548160ff02191690836004811115613eec57fe5b0217905550905050816004600084600001518152602001908152602001600020600082015181600001556020820151816001019060001916905560408201518160020160006101000a81548173ffffffffffffffffffffffffffffffffffffffff021916908373ffffffffffffffffffffffffffffffffffffffff16021790555060608201518160030160006101000a81548173ffffffffffffffffffffffffffffffffffffffff021916908373ffffffffffffffffffffffffffffffffffffffff16021790555060808201518160040160006101000a81548173ffffffffffffffffffffffffffffffffffffffff021916908373ffffffffffffffffffffffffffffffffffffffff16021790555060a0820151816005015560c0820151816006019060001916905560e082015181600701556101008201518160080160006101000a81548160ff0219169083600481111561404457fe5b02179055509050505050565b600085858585856040516020018086600019166000191681526020018573ffffffffffffffffffffffffffffffffffffffff1673ffffffffffffffffffffffffffffffffffffffff166c01000000000000000000000000028152601401848152602001838152602001828152602001955050505050506040516020818303038152906040526040518082805190602001908083835b60208310151561410a57805182526020820191506020810190506020830392506140e5565b6001836020036101000a0380198251168184511680821785525050505050509050019150506040518091039020905095945050505050565b8073ffffffffffffffffffffffffffffffffffffffff168273ffffffffffffffffffffffffffffffffffffffff16638da5cb5b6040518163ffffffff167c0100000000000000000000000000000000000000000000000000000000028152600401602060405180830381600087803b1580156141bd57600080fd5b505af11580156141d1573d6000803e3d6000fd5b505050506040513d60208110156141e757600080fd5b810190808051906020019092919050505073ffffffffffffffffffffffffffffffffffffffff16141515614283576040517f08c379a00000000000000000000000000000000000000000000000000000000081526004018080602001828103825260158152602001807f73656e6465722d70726f7879206d69736d61746368000000000000000000000081525060200191505060405180910390fd5b600b60009054906101000a900473ffffffffffffffffffffffffffffffffffffffff1673ffffffffffffffffffffffffffffffffffffffff1663baa8529c84846040518363ffffffff167c01000000000000000000000000000000000000000000000000000000000281526004018083600019166000191681526020018273ffffffffffffffffffffffffffffffffffffffff1673ffffffffffffffffffffffffffffffffffffffff16815260200192505050600060405180830381600087803b15801561435057600080fd5b505af1158015614364573d6000803e3d6000fd5b505050507fca0640bc6252d4473c754551def16ffd3eda32ac028518cc3faf10a46721302a8330846040518084600019166000191681526020018373ffffffffffffffffffffffffffffffffffffffff1673ffffffffffffffffffffffffffffffffffffffff1681526020018273ffffffffffffffffffffffffffffffffffffffff1673ffffffffffffffffffffffffffffffffffffffff168152602001935050505060405180910390a1505050565b6000806000841415614429576000915061444b565b828402905082848281151561443a57fe5b0414151561444757600080fd5b8091505b5092915050565b60008083831115151561446457600080fd5b82840390508091505092915050565b600073ffffffffffffffffffffffffffffffffffffffff168173ffffffffffffffffffffffffffffffffffffffff16141515156144af57600080fd5b6144b98282613b37565b15156144c457600080fd5b60008260000160008373ffffffffffffffffffffffffffffffffffffffff1673ffffffffffffffffffffffffffffffffffffffff16815260200190815260200160002060006101000a81548160ff0219169083151502179055505050565b600073ffffffffffffffffffffffffffffffffffffffff168173ffffffffffffffffffffffffffffffffffffffff161415151561455e57600080fd5b6145688282613b37565b15151561457457600080fd5b60018260000160008373ffffffffffffffffffffffffffffffffffffffff1673ffffffffffffffffffffffffffffffffffffffff16815260200190815260200160002060006101000a81548160ff0219169083151502179055505050565b610120604051908101604052806000815260200160008019168152602001600073ffffffffffffffffffffffffffffffffffffffff168152602001600073ffffffffffffffffffffffffffffffffffffffff168152602001600073ffffffffffffffffffffffffffffffffffffffff1681526020016000815260200160008019168152602001600081526020016000600481111561466c57fe5b81525090565b610140604051908101604052806000801916815260200160008019168152602001600073ffffffffffffffffffffffffffffffffffffffff168152602001600073ffffffffffffffffffffffffffffffffffffffff16815260200160008152602001600073ffffffffffffffffffffffffffffffffffffffff168152602001600080191681526020016000815260200160001515815260200160001515815250905600a165627a7a72305820361496d8eb14520da5765b908443fcbe7d4cca03c88246b469c7150d8de2150c0029",
  "source": "pragma solidity ^0.4.24;\n\nimport \"openzeppelin-solidity/contracts/lifecycle/Pausable.sol\";\nimport \"openzeppelin-solidity/contracts/token/ERC20/IERC20.sol\";\nimport \"openzeppelin-solidity/contracts/math/SafeMath.sol\";\nimport \"./lib/ITub.sol\";\nimport \"./lib/dappsys-monolithic/proxy.sol\";\n\ncontract AuctionRegistry {\n    enum AuctionState {\n        Waiting,\n        Live,\n        Cancelled,\n        Ended,\n        Expired\n    }\n\n    struct AuctionInfo {\n        uint256 listingNumber;\n        bytes32 cdp;\n        address seller;\n        address proxy;\n        address token;\n        uint256 ask;\n        bytes32 auctionId;\n        uint256 expiryBlock;\n        AuctionState state;\n    }\n\n    struct BidInfo {\n        bytes32 cdp;\n        bytes32 auctionId;\n        address buyer;\n        address proxy;\n        uint256 value;\n        address token;\n        bytes32 bidId;\n        uint256 expiryBlock;\n        bool    won;\n        bool    revoked;\n    }\n\n    uint256 public totalListings = 0;\n\n    // Mapping of auctionIds to its corresponding CDP auction\n    mapping (bytes32 => AuctionInfo) internal auctions;\n    // Mapping for iterative lookup of all auctions\n    mapping (uint256 => AuctionInfo) internal allAuctions;\n    // Mapping of users to AuctionIds\n    mapping (address => bytes32[]) internal userToAuctions;\n\n    // Registry mapping bidIds to their corresponding entries\n    mapping (bytes32 => BidInfo) internal bidRegistry;\n    // Mapping of auctionIds to bidIds\n    mapping (bytes32 => bytes32[]) internal auctionToBids;\n    // Mapping of users to bidIds\n    mapping (address => bytes32[]) internal userToBids;\n\n    function getAuctionsByUser(address auctioneer)\n        public\n        view\n        returns (bytes32[])\n    {\n        return userToAuctions[auctioneer];\n    }\n\n    function getAuctionInfo(bytes32 auctionId)\n        public\n        view\n        returns (\n            uint256 number,\n            bytes32 cdp,\n            address seller,\n            address proxy,\n            address token,\n            uint256 ask,\n            uint256 expiry,\n            AuctionState state\n        )\n    {\n        number = auctions[auctionId].listingNumber;\n        cdp    = auctions[auctionId].cdp;\n        seller = auctions[auctionId].seller;\n        proxy  = auctions[auctionId].proxy;\n        token  = auctions[auctionId].token;\n        ask    = auctions[auctionId].ask;\n        expiry = auctions[auctionId].expiryBlock;\n        state  = auctions[auctionId].state;\n    }\n\n    function getAuctionInfoByIndex(uint256 index)\n        public\n        view\n        returns (\n            bytes32 id,\n            bytes32 cdp,\n            address seller,\n            address proxy,\n            address token,\n            uint256 ask,\n            uint256 expiry,\n            AuctionState state\n        )\n    {\n        id     = allAuctions[index].auctionId;\n        cdp    = allAuctions[index].cdp;\n        seller = allAuctions[index].seller;\n        proxy  = allAuctions[index].proxy;\n        token  = allAuctions[index].token;\n        ask    = allAuctions[index].ask;\n        expiry = allAuctions[index].expiryBlock;\n        state  = allAuctions[index].state;\n    }\n\n    function getBids(bytes32 auctionId)\n        public \n        view\n        returns (bytes32[])\n    {\n        return auctionToBids[auctionId];\n    }\n\n    function getBidsByUser(address bidder)\n        public\n        view\n        returns (bytes32[])\n    {\n        return userToBids[bidder];\n    }\n\n    function getBidInfo(bytes32 bidId)\n        public\n        view\n        returns (\n            bytes32 cdp,\n            bytes32 auctionId,\n            address buyer,\n            address proxy,\n            uint256 value,\n            address token,\n            uint256 expiry,\n            bool    revoked,\n            bool    won\n        )\n    {\n        cdp       = bidRegistry[bidId].cdp;\n        auctionId = bidRegistry[bidId].auctionId;\n        buyer     = bidRegistry[bidId].buyer;\n        proxy     = bidRegistry[bidId].proxy;\n        value     = bidRegistry[bidId].value;\n        token     = bidRegistry[bidId].token;\n        expiry    = bidRegistry[bidId].expiryBlock;\n        revoked   = bidRegistry[bidId].revoked;\n        won       = bidRegistry[bidId].won;\n    }\n}\n\ncontract AuctionEvents is AuctionRegistry{\n    event LogAuctionEntry(\n        bytes32 cdp,\n        address indexed seller,\n        address indexed proxy,\n        bytes32 indexed auctionId,\n        address token,\n        uint256 ask,\n        uint256 expiry\n    );\n\n    event LogEndedAuction(\n        bytes32 indexed auctionId,\n        bytes32 cdp,\n        address indexed seller,\n        AuctionState state\n    );\n\n    event LogConclusion(\n        bytes32 cdp,\n        address seller,\n        address buyer,\n        bytes32 indexed auctionId,\n        bytes32 indexed bidId,\n        uint256 value\n    );\n\n    event LogSubmittedBid(\n        bytes32 cdp,\n        bytes32 indexed auctionId,\n        address indexed buyer,\n        address proxy,\n        uint256 value,\n        address token,\n        bytes32 indexed bidId,\n        uint256 expiryBlock\n    );\n\n    event LogRevokedBid(\n        bytes32 cdp,\n        address indexed buyer,\n        bytes32 indexed bidId,\n        uint256 value\n    );\n\n    event LogCDPTransfer(\n        bytes32 cdp, \n        address from,\n        address to\n    );\n}\n\ncontract Auction is Pausable, AuctionEvents{\n    using SafeMath for uint256;\n\n    address private feeTaker;\n    uint256 public fee;\n    ITub public tub;\n    \n    constructor(address _tub)\n        public \n    {\n        tub = ITub(_tub);\n        feeTaker = msg.sender;\n        fee = 0;\n    }\n\n    /**\n     * List a CDP for auction\n     */\n    function listCDP(\n        bytes32 cdp,\n        address seller,\n        address token,\n        uint256 ask,\n        uint256 expiry,\n        uint256 salt\n    )\n        external\n        whenNotPaused\n        returns (bytes32)\n    {\n        require(tub.lad(cdp) != address(this), \"cdp already on auction\");\n        require(DSProxy(msg.sender).owner() == seller, \"proxy-seller mismatch\");\n\n        bytes32 auctionId = _genAuctionId(\n            ++totalListings,\n            cdp,\n            msg.sender,\n            expiry,\n            salt\n        );\n\n        require(auctions[auctionId].auctionId == bytes32(0), \"auctionId already used\");\n\n        AuctionInfo memory entry = AuctionInfo(\n            totalListings,\n            cdp,\n            seller,\n            msg.sender,\n            token,\n            ask,\n            auctionId,\n            expiry,\n            AuctionState.Waiting\n        );\n\n        updateAuction(entry, AuctionState.Waiting);\n        userToAuctions[seller].push(auctionId);\n\n        emit LogAuctionEntry(\n            cdp,\n            seller,\n            msg.sender,\n            auctionId,\n            token,\n            ask,\n            expiry\n        );\n\n        return auctionId;\n    }\n\n    /* Resolve auction by seller */\n    function resolveAuction(bytes32 auctionId, bytes32 bidId)\n        external \n    {\n        AuctionInfo memory entry = auctions[auctionId];\n        require(tub.lad(entry.cdp) == address(this), \"cdp not owned by auction\");\n        require(entry.seller == msg.sender, \"caller must be seller\");\n        require(entry.state == AuctionState.Live, \"auction is not live\");\n\n        if(block.number >= entry.expiryBlock) {\n            endAuction(entry, AuctionState.Expired);\n            return;\n        }\n\n        BidInfo memory bid = bidRegistry[bidId];\n        require(!bid.revoked, \"bid was revoked\");\n        require(bid.value != 0, \"bid value cannot be zero\");\n        require(block.number < bid.expiryBlock, \"bid expired\");\n        bid.won = true;\n        bidRegistry[bidId] = bid;\n\n        concludeAuction(entry, bidId, bid.buyer, bid.proxy, bid.token, bid.value);\n    }\n\n    /* Remove a CDP from auction */\n    function cancelAuction(bytes32 auctionId)\n        external\n    {\n        AuctionInfo memory entry = auctions[auctionId];\n        require(tub.lad(entry.cdp) == address(this), \"cdp not owned by auction\");\n        require(entry.state == AuctionState.Waiting ||\n                entry.state == AuctionState.Expired, \"cannot cancel live auction\");\n        require(msg.sender == entry.seller, \"caller must be seller\");\n\n        AuctionState state = (block.number >= entry.expiryBlock)\n                                ? AuctionState.Expired\n                                : AuctionState.Cancelled;\n        endAuction(entry, state);\n    }\n\n    function submitBid(\n        bytes32 auctionId,\n        address proxy,\n        address token,\n        uint256 value,\n        uint256 expiry,\n        uint256 salt\n    )\n        external\n        whenNotPaused\n        returns (bytes32)\n    {\n        AuctionInfo memory entry = auctions[auctionId];\n        require(tub.lad(entry.cdp) == address(this), \"cdp not owned by auction\");\n        require(DSProxy(proxy).owner() == msg.sender, \"proxy-bidder mismatch\");\n        require(\n            entry.state == AuctionState.Live ||\n            entry.state == AuctionState.Waiting, \n            \"auction must be live\"\n        );\n        \n        if(block.number >= entry.expiryBlock) {\n            endAuction(entry, AuctionState.Expired);\n            return bytes32(0);\n        }\n\n        if(entry.state == AuctionState.Waiting) {\n            updateAuction(entry, AuctionState.Live);\n        }\n\n        bytes32 bidId = _genBidId(\n            auctionId,\n            msg.sender,\n            value,\n            expiry % block.number,\n            salt\n        );\n\n        require(bidRegistry[bidId].bidId == bytes32(0), \"bidId already used\");\n\n        BidInfo memory bid = BidInfo(\n            entry.cdp,\n            auctionId,\n            msg.sender,\n            proxy,\n            value,\n            token,\n            bidId,\n            expiry,\n            false,\n            false\n        );\n\n        // Auction tokens held in escrow until bid expires\n        IERC20(token).transferFrom(msg.sender, this, value);\n\n        if(value >= entry.ask && token == entry.token) {\n            // Allow auction to conclude if bid >= ask\n            bid.won = true;\n            concludeAuction(entry, bidId, msg.sender, proxy, entry.token, value);\n        }\n\n        bidRegistry[bidId] = bid;\n        userToBids[msg.sender].push(bidId);\n        auctionToBids[auctionId].push(bidId);\n\n        emit LogSubmittedBid(\n            entry.cdp,\n            auctionId,\n            msg.sender,\n            proxy,\n            value,\n            token,\n            bidId,\n            expiry\n        );\n\n        return bidId;\n    }\n\n    function revokeBid(bytes32 bidId)\n        external\n    {\n        BidInfo memory bid = bidRegistry[bidId];\n        require(msg.sender == bid.buyer, \"caller must be buyer\");\n        require(!bid.revoked, \"bid already revoked\");\n        bid.revoked = true;\n        bidRegistry[bidId] = bid;\n        IERC20(bid.token).transfer(msg.sender, bid.value);\n\n        emit LogRevokedBid(\n            bid.cdp,\n            msg.sender,\n            bidId,\n            bid.value\n        );\n    }\n\n    function concludeAuction(\n        AuctionInfo entry,\n        bytes32 bidId,\n        address winner, \n        address proxy, \n        address token,\n        uint256 value\n    ) \n        internal\n    {\n        uint256 service = value.mul(fee);\n        IERC20(token).transfer(feeTaker, service);\n        IERC20(token).transfer(entry.seller, value.sub(service));\n\n        transferCDP(\n            entry.cdp, \n            proxy,\n            winner\n        );\n\n        updateAuction(entry, AuctionState.Ended);\n\n        emit LogConclusion(\n            entry.cdp,\n            winner,\n            entry.seller,\n            entry.auctionId,\n            bidId,\n            value\n        );\n    }\n\n    function endAuction(AuctionInfo entry, AuctionState state)\n        internal\n    {\n        updateAuction(entry, state);\n        transferCDP(\n            entry.cdp,\n            entry.proxy,\n            entry.seller\n        );\n\n        emit LogEndedAuction(\n            entry.auctionId,\n            entry.cdp,\n            entry.seller,\n            state\n        );\n    }\n\n    function updateAuction(AuctionInfo entry, AuctionState state)\n        internal\n    {\n        entry.state = state;\n        auctions[entry.auctionId] = entry;\n        allAuctions[entry.listingNumber] = entry;\n    }\n\n    function transferCDP(\n        bytes32 cdp, \n        address proxy, \n        address proxyOwner\n    ) internal\n    {\n        require(DSProxy(proxy).owner() == proxyOwner, \"sender-proxy mismatch\");\n        tub.give(cdp, proxy);\n\n        emit LogCDPTransfer(\n            cdp,\n            address(this),\n            proxy\n        );\n    }\n\n    /**\n     * Helper function for computing the hash of a given auction\n     * listing. Will be used as the auctionId for each new CDP\n     * auctions. \n     */\n    function _genAuctionId(\n        uint256 _auctionCounter,\n        bytes32 _cup, \n        address _seller, \n        uint256 _expiry, \n        uint256 _salt\n    )\n        internal\n        pure\n        returns(bytes32)\n    {\n        return keccak256(\n            abi.encodePacked(\n                _auctionCounter,\n                _cup, \n                _seller, \n                _expiry,\n                _salt\n            )\n        );\n    }\n\n    /**\n     * Helper function for computing the hash of a given bid.\n     * Will be used as the bidId for each bid in an auction.\n     */\n    function _genBidId(\n        bytes32 _auctionId,\n        address _buyer,\n        uint256 _value,\n        uint256 _expiry,\n        uint256 _salt\n    ) \n        internal\n        pure\n        returns(bytes32)\n    {\n        return keccak256(\n            abi.encodePacked(\n                _auctionId,\n                _buyer,\n                _value,\n                _expiry,\n                _salt\n            )\n        );\n    }\n\n    function setFeeTaker(address newFeeTaker) \n        public\n        onlyPauser\n    {\n        feeTaker = newFeeTaker;\n    }\n\n    function setFee(uint256 newFee) \n        public\n        onlyPauser\n    {\n        fee = newFee;\n    }\n}",
  "sourcePath": "/Users/Michael/Projects/cdp.auction/cdp-auction/contracts/Auction.sol",
  "compiler": {
    "name": "solc",
    "version": "0.4.24+commit.e67f0147.Emscripten.clang"
  },
  "schemaVersion": "2.0.1",
  "updatedAt": "2019-01-10T05:08:16.619Z"
}