{
  "contractName": "DSProxy",
  "abi": [
    {
      "constant": false,
      "inputs": [
        {
          "name": "owner_",
          "type": "address"
        }
      ],
      "name": "setOwner",
      "outputs": [],
      "payable": false,
      "stateMutability": "nonpayable",
      "type": "function"
    },
    {
      "constant": true,
      "inputs": [],
      "name": "cache",
      "outputs": [
        {
          "name": "",
          "type": "address"
        }
      ],
      "payable": false,
      "stateMutability": "view",
      "type": "function"
    },
    {
      "constant": false,
      "inputs": [
        {
          "name": "authority_",
          "type": "address"
        }
      ],
      "name": "setAuthority",
      "outputs": [],
      "payable": false,
      "stateMutability": "nonpayable",
      "type": "function"
    },
    {
      "constant": true,
      "inputs": [],
      "name": "owner",
      "outputs": [
        {
          "name": "",
          "type": "address"
        }
      ],
      "payable": false,
      "stateMutability": "view",
      "type": "function"
    },
    {
      "constant": true,
      "inputs": [],
      "name": "authority",
      "outputs": [
        {
          "name": "",
          "type": "address"
        }
      ],
      "payable": false,
      "stateMutability": "view",
      "type": "function"
    },
    {
      "inputs": [
        {
          "name": "_cacheAddr",
          "type": "address"
        }
      ],
      "payable": false,
      "stateMutability": "nonpayable",
      "type": "constructor"
    },
    {
      "payable": true,
      "stateMutability": "payable",
      "type": "fallback"
    },
    {
      "anonymous": true,
      "inputs": [
        {
          "indexed": true,
          "name": "sig",
          "type": "bytes4"
        },
        {
          "indexed": true,
          "name": "guy",
          "type": "address"
        },
        {
          "indexed": true,
          "name": "foo",
          "type": "bytes32"
        },
        {
          "indexed": true,
          "name": "bar",
          "type": "bytes32"
        },
        {
          "indexed": false,
          "name": "wad",
          "type": "uint256"
        },
        {
          "indexed": false,
          "name": "fax",
          "type": "bytes"
        }
      ],
      "name": "LogNote",
      "type": "event"
    },
    {
      "anonymous": false,
      "inputs": [
        {
          "indexed": true,
          "name": "authority",
          "type": "address"
        }
      ],
      "name": "LogSetAuthority",
      "type": "event"
    },
    {
      "anonymous": false,
      "inputs": [
        {
          "indexed": true,
          "name": "owner",
          "type": "address"
        }
      ],
      "name": "LogSetOwner",
      "type": "event"
    },
    {
      "constant": false,
      "inputs": [
        {
          "name": "_target",
          "type": "address"
        },
        {
          "name": "_data",
          "type": "bytes"
        }
      ],
      "name": "execute",
      "outputs": [
        {
          "name": "response",
          "type": "bytes"
        }
      ],
      "payable": true,
      "stateMutability": "payable",
      "type": "function"
    },
    {
      "constant": false,
      "inputs": [
        {
          "name": "_code",
          "type": "bytes"
        },
        {
          "name": "_data",
          "type": "bytes"
        }
      ],
      "name": "execute",
      "outputs": [
        {
          "name": "target",
          "type": "address"
        },
        {
          "name": "response",
          "type": "bytes"
        }
      ],
      "payable": true,
      "stateMutability": "payable",
      "type": "function"
    },
    {
      "constant": false,
      "inputs": [
        {
          "name": "_cacheAddr",
          "type": "address"
        }
      ],
      "name": "setCache",
      "outputs": [
        {
          "name": "",
          "type": "bool"
        }
      ],
      "payable": false,
      "stateMutability": "nonpayable",
      "type": "function"
    }
  ],
  "bytecode": "0x60806040523480156200001157600080fd5b50604051602080620017618339810180604052810190808051906020019092919050505033600160006101000a81548173ffffffffffffffffffffffffffffffffffffffff021916908373ffffffffffffffffffffffffffffffffffffffff1602179055503373ffffffffffffffffffffffffffffffffffffffff167fce241d7ca1f669fee44b6fc00b8eba2df3bb514eed0f6f668f8f89096e81ed9460405160405180910390a2620000d3816200012a640100000000026401000000009004565b151562000123576040517f08c379a0000000000000000000000000000000000000000000000000000000008152600401808060200182810382526000815260200160200191505060405180910390fd5b50620005ed565b60006200016b336000357fffffffff00000000000000000000000000000000000000000000000000000000166200036d640100000000026401000000009004565b1515620001e0576040517f08c379a00000000000000000000000000000000000000000000000000000000081526004018080602001828103825260148152602001807f64732d617574682d756e617574686f72697a656400000000000000000000000081525060200191505060405180910390fd5b600080600060043592506024359150349050816000191683600019163373ffffffffffffffffffffffffffffffffffffffff166000357fffffffff00000000000000000000000000000000000000000000000000000000167bffffffffffffffffffffffffffffffffffffffffffffffffffffffff19168460003660405180848152602001806020018281038252848482818152602001925080828437820191505094505050505060405180910390a460008573ffffffffffffffffffffffffffffffffffffffff161415151562000320576040517f08c379a00000000000000000000000000000000000000000000000000000000081526004018080602001828103825260158152602001807f496e76616c69642063616368652061646472657373000000000000000000000081525060200191505060405180910390fd5b84600260006101000a81548173ffffffffffffffffffffffffffffffffffffffff021916908373ffffffffffffffffffffffffffffffffffffffff16021790555060019350505050919050565b60003073ffffffffffffffffffffffffffffffffffffffff168373ffffffffffffffffffffffffffffffffffffffff161415620003ae5760019050620005e7565b600160009054906101000a900473ffffffffffffffffffffffffffffffffffffffff1673ffffffffffffffffffffffffffffffffffffffff168373ffffffffffffffffffffffffffffffffffffffff1614156200040f5760019050620005e7565b600073ffffffffffffffffffffffffffffffffffffffff166000809054906101000a900473ffffffffffffffffffffffffffffffffffffffff1673ffffffffffffffffffffffffffffffffffffffff161415620004705760009050620005e7565b6000809054906101000a900473ffffffffffffffffffffffffffffffffffffffff1673ffffffffffffffffffffffffffffffffffffffff1663b70096138430856040518463ffffffff167c0100000000000000000000000000000000000000000000000000000000028152600401808473ffffffffffffffffffffffffffffffffffffffff1673ffffffffffffffffffffffffffffffffffffffff1681526020018373ffffffffffffffffffffffffffffffffffffffff1673ffffffffffffffffffffffffffffffffffffffff168152602001827bffffffffffffffffffffffffffffffffffffffffffffffffffffffff19167bffffffffffffffffffffffffffffffffffffffffffffffffffffffff191681526020019350505050602060405180830381600087803b158015620005a757600080fd5b505af1158015620005bc573d6000803e3d6000fd5b505050506040513d6020811015620005d357600080fd5b810190808051906020019092919050505090505b92915050565b61116480620005fd6000396000f30060806040526004361061008e576000357c0100000000000000000000000000000000000000000000000000000000900463ffffffff16806313af4035146100905780631cff79cd146100d35780631f6a1eb9146101c857806360c7d295146103165780637a9e5e4b1461036d5780638da5cb5b146103b0578063948f507614610407578063bf7e214f14610462575b005b34801561009c57600080fd5b506100d1600480360381019080803573ffffffffffffffffffffffffffffffffffffffff1690602001909291905050506104b9565b005b61014d600480360381019080803573ffffffffffffffffffffffffffffffffffffffff169060200190929190803590602001908201803590602001908080601f0160208091040260200160405190810160405280939291908181526020018383808284378201915050505050509192919290505050610604565b6040518080602001828103825283818151815260200191508051906020019080838360005b8381101561018d578082015181840152602081019050610172565b50505050905090810190601f1680156101ba5780820380516001836020036101000a031916815260200191505b509250505060405180910390f35b610268600480360381019080803590602001908201803590602001908080601f0160208091040260200160405190810160405280939291908181526020018383808284378201915050505050509192919290803590602001908201803590602001908080601f016020809104026020016040519081016040528093929190818152602001838380828437820191505050505050919291929050505061083a565b604051808373ffffffffffffffffffffffffffffffffffffffff1673ffffffffffffffffffffffffffffffffffffffff16815260200180602001828103825283818151815260200191508051906020019080838360005b838110156102da5780820151818401526020810190506102bf565b50505050905090810190601f1680156103075780820380516001836020036101000a031916815260200191505b50935050505060405180910390f35b34801561032257600080fd5b5061032b610ad7565b604051808273ffffffffffffffffffffffffffffffffffffffff1673ffffffffffffffffffffffffffffffffffffffff16815260200191505060405180910390f35b34801561037957600080fd5b506103ae600480360381019080803573ffffffffffffffffffffffffffffffffffffffff169060200190929190505050610afd565b005b3480156103bc57600080fd5b506103c5610c46565b604051808273ffffffffffffffffffffffffffffffffffffffff1673ffffffffffffffffffffffffffffffffffffffff16815260200191505060405180910390f35b34801561041357600080fd5b50610448600480360381019080803573ffffffffffffffffffffffffffffffffffffffff169060200190929190505050610c6c565b604051808215151515815260200191505060405180910390f35b34801561046e57600080fd5b50610477610e9c565b604051808273ffffffffffffffffffffffffffffffffffffffff1673ffffffffffffffffffffffffffffffffffffffff16815260200191505060405180910390f35b6104e7336000357fffffffff0000000000000000000000000000000000000000000000000000000016610ec1565b151561055b576040517f08c379a00000000000000000000000000000000000000000000000000000000081526004018080602001828103825260148152602001807f64732d617574682d756e617574686f72697a656400000000000000000000000081525060200191505060405180910390fd5b80600160006101000a81548173ffffffffffffffffffffffffffffffffffffffff021916908373ffffffffffffffffffffffffffffffffffffffff160217905550600160009054906101000a900473ffffffffffffffffffffffffffffffffffffffff1673ffffffffffffffffffffffffffffffffffffffff167fce241d7ca1f669fee44b6fc00b8eba2df3bb514eed0f6f668f8f89096e81ed9460405160405180910390a250565b6060610634336000357fffffffff0000000000000000000000000000000000000000000000000000000016610ec1565b15156106a8576040517f08c379a00000000000000000000000000000000000000000000000000000000081526004018080602001828103825260148152602001807f64732d617574682d756e617574686f72697a656400000000000000000000000081525060200191505060405180910390fd5b600080600060043592506024359150349050816000191683600019163373ffffffffffffffffffffffffffffffffffffffff166000357fffffffff00000000000000000000000000000000000000000000000000000000167bffffffffffffffffffffffffffffffffffffffffffffffffffffffff19168460003660405180848152602001806020018281038252848482818152602001925080828437820191505094505050505060405180910390a460008673ffffffffffffffffffffffffffffffffffffffff16141515156107e7576040517f08c379a000000000000000000000000000000000000000000000000000000000815260040180806020018281038252601b8152602001807f5461726765742061646472657373206973206e6563657373617279000000000081525060200191505060405180910390fd5b600080865160208801896113885a03f43d6040519550601f19601f6020830101168601604052808652806000602088013e8115600181146108275761082e565b8160208801fd5b50505050505092915050565b60006060600260009054906101000a900473ffffffffffffffffffffffffffffffffffffffff1673ffffffffffffffffffffffffffffffffffffffff16638bf4515c856040518263ffffffff167c01000000000000000000000000000000000000000000000000000000000281526004018080602001828103825283818151815260200191508051906020019080838360005b838110156108e85780820151818401526020810190506108cd565b50505050905090810190601f1680156109155780820380516001836020036101000a031916815260200191505b5092505050602060405180830381600087803b15801561093457600080fd5b505af1158015610948573d6000803e3d6000fd5b505050506040513d602081101561095e57600080fd5b8101908080519060200190929190505050915060008273ffffffffffffffffffffffffffffffffffffffff161415610ac457600260009054906101000a900473ffffffffffffffffffffffffffffffffffffffff1673ffffffffffffffffffffffffffffffffffffffff16637ed0c3b2856040518263ffffffff167c01000000000000000000000000000000000000000000000000000000000281526004018080602001828103825283818151815260200191508051906020019080838360005b83811015610a3a578082015181840152602081019050610a1f565b50505050905090810190601f168015610a675780820380516001836020036101000a031916815260200191505b5092505050602060405180830381600087803b158015610a8657600080fd5b505af1158015610a9a573d6000803e3d6000fd5b505050506040513d6020811015610ab057600080fd5b810190808051906020019092919050505091505b610ace8284610604565b90509250929050565b600260009054906101000a900473ffffffffffffffffffffffffffffffffffffffff1681565b610b2b336000357fffffffff0000000000000000000000000000000000000000000000000000000016610ec1565b1515610b9f576040517f08c379a00000000000000000000000000000000000000000000000000000000081526004018080602001828103825260148152602001807f64732d617574682d756e617574686f72697a656400000000000000000000000081525060200191505060405180910390fd5b806000806101000a81548173ffffffffffffffffffffffffffffffffffffffff021916908373ffffffffffffffffffffffffffffffffffffffff1602179055506000809054906101000a900473ffffffffffffffffffffffffffffffffffffffff1673ffffffffffffffffffffffffffffffffffffffff167f1abebea81bfa2637f28358c371278fb15ede7ea8dd28d2e03b112ff6d936ada460405160405180910390a250565b600160009054906101000a900473ffffffffffffffffffffffffffffffffffffffff1681565b6000610c9c336000357fffffffff0000000000000000000000000000000000000000000000000000000016610ec1565b1515610d10576040517f08c379a00000000000000000000000000000000000000000000000000000000081526004018080602001828103825260148152602001807f64732d617574682d756e617574686f72697a656400000000000000000000000081525060200191505060405180910390fd5b600080600060043592506024359150349050816000191683600019163373ffffffffffffffffffffffffffffffffffffffff166000357fffffffff00000000000000000000000000000000000000000000000000000000167bffffffffffffffffffffffffffffffffffffffffffffffffffffffff19168460003660405180848152602001806020018281038252848482818152602001925080828437820191505094505050505060405180910390a460008573ffffffffffffffffffffffffffffffffffffffff1614151515610e4f576040517f08c379a00000000000000000000000000000000000000000000000000000000081526004018080602001828103825260158152602001807f496e76616c69642063616368652061646472657373000000000000000000000081525060200191505060405180910390fd5b84600260006101000a81548173ffffffffffffffffffffffffffffffffffffffff021916908373ffffffffffffffffffffffffffffffffffffffff16021790555060019350505050919050565b6000809054906101000a900473ffffffffffffffffffffffffffffffffffffffff1681565b60003073ffffffffffffffffffffffffffffffffffffffff168373ffffffffffffffffffffffffffffffffffffffff161415610f005760019050611132565b600160009054906101000a900473ffffffffffffffffffffffffffffffffffffffff1673ffffffffffffffffffffffffffffffffffffffff168373ffffffffffffffffffffffffffffffffffffffff161415610f5f5760019050611132565b600073ffffffffffffffffffffffffffffffffffffffff166000809054906101000a900473ffffffffffffffffffffffffffffffffffffffff1673ffffffffffffffffffffffffffffffffffffffff161415610fbe5760009050611132565b6000809054906101000a900473ffffffffffffffffffffffffffffffffffffffff1673ffffffffffffffffffffffffffffffffffffffff1663b70096138430856040518463ffffffff167c0100000000000000000000000000000000000000000000000000000000028152600401808473ffffffffffffffffffffffffffffffffffffffff1673ffffffffffffffffffffffffffffffffffffffff1681526020018373ffffffffffffffffffffffffffffffffffffffff1673ffffffffffffffffffffffffffffffffffffffff168152602001827bffffffffffffffffffffffffffffffffffffffffffffffffffffffff19167bffffffffffffffffffffffffffffffffffffffffffffffffffffffff191681526020019350505050602060405180830381600087803b1580156110f457600080fd5b505af1158015611108573d6000803e3d6000fd5b505050506040513d602081101561111e57600080fd5b810190808051906020019092919050505090505b929150505600a165627a7a72305820266315ec1ef6173fa6c3cf58f80cfdc8068e55041e8b6eb161f059f9b6a065a30029",
  "source": "// proxy.sol - execute actions atomically through the proxy's identity\n\n// Copyright (C) 2017  DappHub, LLC\n\n// This program is free software: you can redistribute it and/or modify\n// it under the terms of the GNU General Public License as published by\n// the Free Software Foundation, either version 3 of the License, or\n// (at your option) any later version.\n\n// This program is distributed in the hope that it will be useful,\n// but WITHOUT ANY WARRANTY; without even the implied warranty of\n// MERCHANTABILITY or FITNESS FOR A PARTICULAR PURPOSE.  See the\n// GNU General Public License for more details.\n\n// You should have received a copy of the GNU General Public License\n// along with this program.  If not, see <http://www.gnu.org/licenses/>.\n\npragma solidity ^0.4.23;\n\nimport \"./auth.sol\";\nimport \"./note.sol\";\n\n// DSProxy\n// Allows code execution using a persistant identity This can be very\n// useful to execute a sequence of atomic actions. Since the owner of\n// the proxy can be changed, this allows for dynamic ownership models\n// i.e. a multisig\ncontract DSProxy is DSAuth, DSNote {\n    DSProxyCache public cache;  // global cache for contracts\n\n    constructor(address _cacheAddr) public {\n        require(setCache(_cacheAddr), \"\");\n    }\n\n    function() public payable {\n    }\n\n    // use the proxy to execute calldata _data on contract _code\n    function execute(bytes _code, bytes _data)\n        public\n        payable\n        returns (address target, bytes response)\n    {\n        target = cache.read(_code);\n        if (target == 0x0) {\n            // deploy contract & store its address in cache\n            target = cache.write(_code);\n        }\n\n        response = execute(target, _data);\n    }\n\n    function execute(address _target, bytes _data)\n        public\n        auth\n        note\n        payable\n        returns (bytes response)\n    {\n        require(_target != 0x0, \"Target address is necessary\");\n\n        // call contract in current context\n        assembly {\n            let succeeded := delegatecall(sub(gas, 5000), _target, add(_data, 0x20), mload(_data), 0, 0)\n            let size := returndatasize\n\n            response := mload(0x40)\n            mstore(0x40, add(response, and(add(add(size, 0x20), 0x1f), not(0x1f))))\n            mstore(response, size)\n            returndatacopy(add(response, 0x20), 0, size)\n\n            switch iszero(succeeded)\n            case 1 {\n                // throw if delegatecall failed\n                revert(add(response, 0x20), size)\n            }\n        }\n    }\n\n    //set new cache\n    function setCache(address _cacheAddr)\n        public\n        auth\n        note\n        returns (bool)\n    {\n        require(_cacheAddr != 0x0, \"Invalid cache address\");\n        cache = DSProxyCache(_cacheAddr);  // overwrite cache\n        return true;\n    }\n}\n\n// DSProxyFactory\n// This factory deploys new proxy instances through build()\n// Deployed proxy addresses are logged\ncontract DSProxyFactory {\n    event Created(address indexed sender, address indexed owner, address proxy, address cache);\n    mapping(address=>bool) public isProxy;\n    DSProxyCache public cache = new DSProxyCache();\n\n    // deploys a new proxy instance\n    // sets owner of proxy to caller\n    function build() public returns (address proxy) {\n        proxy = build(msg.sender);\n    }\n\n    // deploys a new proxy instance\n    // sets custom owner of proxy\n    function build(address owner) public returns (address proxy) {\n        proxy = new DSProxy(cache);\n        emit Created(msg.sender, owner, address(proxy), address(cache));\n        DSProxy(proxy).setOwner(owner);\n        isProxy[proxy] = true;\n    }\n}\n\n// DSProxyCache\n// This global cache stores addresses of contracts previously deployed\n// by a proxy. This saves gas from repeat deployment of the same\n// contracts and eliminates blockchain bloat.\n\n// By default, all proxies deployed from the same factory store\n// contracts in the same cache. The cache a proxy instance uses can be\n// changed.  The cache uses the sha3 hash of a contract's bytecode to\n// lookup the address\ncontract DSProxyCache {\n    mapping(bytes32 => address) cache;\n\n    function read(bytes _code) public view returns (address) {\n        bytes32 hash = keccak256(_code);\n        return cache[hash];\n    }\n\n    function write(bytes _code) public returns (address target) {\n        assembly {\n            target := create(0, add(_code, 0x20), mload(_code))\n            switch iszero(extcodesize(target))\n            case 1 {\n                // throw if contract failed to deploy\n                revert(0, 0)\n            }\n        }\n        bytes32 hash = keccak256(_code);\n        cache[hash] = target;\n    }\n}\n",
  "sourcePath": "/Users/Michael/Projects/cdp.auction/cdp-auction/contracts/lib/dappsys-monolithic/proxy.sol",
  "compiler": {
    "name": "solc",
    "version": "0.4.24+commit.e67f0147.Emscripten.clang"
  },
  "schemaVersion": "2.0.1",
  "updatedAt": "2019-01-10T05:08:16.648Z"
}