{
  "contractName": "SaiTub",
  "abi": [
    {
      "constant": true,
      "inputs": [],
      "name": "sin",
      "outputs": [
        {
          "name": "",
          "type": "address"
        }
      ],
      "payable": false,
      "stateMutability": "view",
      "type": "function"
    },
    {
      "constant": true,
      "inputs": [],
      "name": "skr",
      "outputs": [
        {
          "name": "",
          "type": "address"
        }
      ],
      "payable": false,
      "stateMutability": "view",
      "type": "function"
    },
    {
      "constant": true,
      "inputs": [],
      "name": "gov",
      "outputs": [
        {
          "name": "",
          "type": "address"
        }
      ],
      "payable": false,
      "stateMutability": "view",
      "type": "function"
    },
    {
      "constant": false,
      "inputs": [
        {
          "name": "owner_",
          "type": "address"
        }
      ],
      "name": "setOwner",
      "outputs": [],
      "payable": false,
      "stateMutability": "nonpayable",
      "type": "function"
    },
    {
      "constant": true,
      "inputs": [],
      "name": "rho",
      "outputs": [
        {
          "name": "",
          "type": "uint256"
        }
      ],
      "payable": false,
      "stateMutability": "view",
      "type": "function"
    },
    {
      "constant": true,
      "inputs": [],
      "name": "cap",
      "outputs": [
        {
          "name": "",
          "type": "uint256"
        }
      ],
      "payable": false,
      "stateMutability": "view",
      "type": "function"
    },
    {
      "constant": true,
      "inputs": [],
      "name": "cupi",
      "outputs": [
        {
          "name": "",
          "type": "uint256"
        }
      ],
      "payable": false,
      "stateMutability": "view",
      "type": "function"
    },
    {
      "constant": true,
      "inputs": [],
      "name": "axe",
      "outputs": [
        {
          "name": "",
          "type": "uint256"
        }
      ],
      "payable": false,
      "stateMutability": "view",
      "type": "function"
    },
    {
      "constant": true,
      "inputs": [],
      "name": "off",
      "outputs": [
        {
          "name": "",
          "type": "bool"
        }
      ],
      "payable": false,
      "stateMutability": "view",
      "type": "function"
    },
    {
      "constant": true,
      "inputs": [],
      "name": "vox",
      "outputs": [
        {
          "name": "",
          "type": "address"
        }
      ],
      "payable": false,
      "stateMutability": "view",
      "type": "function"
    },
    {
      "constant": true,
      "inputs": [],
      "name": "gap",
      "outputs": [
        {
          "name": "",
          "type": "uint256"
        }
      ],
      "payable": false,
      "stateMutability": "view",
      "type": "function"
    },
    {
      "constant": false,
      "inputs": [
        {
          "name": "authority_",
          "type": "address"
        }
      ],
      "name": "setAuthority",
      "outputs": [],
      "payable": false,
      "stateMutability": "nonpayable",
      "type": "function"
    },
    {
      "constant": true,
      "inputs": [],
      "name": "gem",
      "outputs": [
        {
          "name": "",
          "type": "address"
        }
      ],
      "payable": false,
      "stateMutability": "view",
      "type": "function"
    },
    {
      "constant": true,
      "inputs": [],
      "name": "rum",
      "outputs": [
        {
          "name": "",
          "type": "uint256"
        }
      ],
      "payable": false,
      "stateMutability": "view",
      "type": "function"
    },
    {
      "constant": true,
      "inputs": [],
      "name": "owner",
      "outputs": [
        {
          "name": "",
          "type": "address"
        }
      ],
      "payable": false,
      "stateMutability": "view",
      "type": "function"
    },
    {
      "constant": true,
      "inputs": [],
      "name": "sai",
      "outputs": [
        {
          "name": "",
          "type": "address"
        }
      ],
      "payable": false,
      "stateMutability": "view",
      "type": "function"
    },
    {
      "constant": true,
      "inputs": [],
      "name": "tax",
      "outputs": [
        {
          "name": "",
          "type": "uint256"
        }
      ],
      "payable": false,
      "stateMutability": "view",
      "type": "function"
    },
    {
      "constant": true,
      "inputs": [],
      "name": "mat",
      "outputs": [
        {
          "name": "",
          "type": "uint256"
        }
      ],
      "payable": false,
      "stateMutability": "view",
      "type": "function"
    },
    {
      "constant": true,
      "inputs": [],
      "name": "pep",
      "outputs": [
        {
          "name": "",
          "type": "address"
        }
      ],
      "payable": false,
      "stateMutability": "view",
      "type": "function"
    },
    {
      "constant": true,
      "inputs": [],
      "name": "out",
      "outputs": [
        {
          "name": "",
          "type": "bool"
        }
      ],
      "payable": false,
      "stateMutability": "view",
      "type": "function"
    },
    {
      "constant": true,
      "inputs": [],
      "name": "authority",
      "outputs": [
        {
          "name": "",
          "type": "address"
        }
      ],
      "payable": false,
      "stateMutability": "view",
      "type": "function"
    },
    {
      "constant": true,
      "inputs": [],
      "name": "fit",
      "outputs": [
        {
          "name": "",
          "type": "uint256"
        }
      ],
      "payable": false,
      "stateMutability": "view",
      "type": "function"
    },
    {
      "constant": true,
      "inputs": [],
      "name": "pip",
      "outputs": [
        {
          "name": "",
          "type": "address"
        }
      ],
      "payable": false,
      "stateMutability": "view",
      "type": "function"
    },
    {
      "constant": true,
      "inputs": [],
      "name": "fee",
      "outputs": [
        {
          "name": "",
          "type": "uint256"
        }
      ],
      "payable": false,
      "stateMutability": "view",
      "type": "function"
    },
    {
      "constant": true,
      "inputs": [],
      "name": "pit",
      "outputs": [
        {
          "name": "",
          "type": "address"
        }
      ],
      "payable": false,
      "stateMutability": "view",
      "type": "function"
    },
    {
      "constant": true,
      "inputs": [],
      "name": "tap",
      "outputs": [
        {
          "name": "",
          "type": "address"
        }
      ],
      "payable": false,
      "stateMutability": "view",
      "type": "function"
    },
    {
      "constant": true,
      "inputs": [
        {
          "name": "",
          "type": "bytes32"
        }
      ],
      "name": "cups",
      "outputs": [
        {
          "name": "lad",
          "type": "address"
        },
        {
          "name": "ink",
          "type": "uint256"
        },
        {
          "name": "art",
          "type": "uint256"
        },
        {
          "name": "ire",
          "type": "uint256"
        }
      ],
      "payable": false,
      "stateMutability": "view",
      "type": "function"
    },
    {
      "inputs": [
        {
          "name": "sai_",
          "type": "address"
        },
        {
          "name": "sin_",
          "type": "address"
        },
        {
          "name": "skr_",
          "type": "address"
        },
        {
          "name": "gem_",
          "type": "address"
        },
        {
          "name": "gov_",
          "type": "address"
        },
        {
          "name": "pip_",
          "type": "address"
        },
        {
          "name": "pep_",
          "type": "address"
        },
        {
          "name": "vox_",
          "type": "address"
        },
        {
          "name": "pit_",
          "type": "address"
        }
      ],
      "payable": false,
      "stateMutability": "nonpayable",
      "type": "constructor"
    },
    {
      "anonymous": false,
      "inputs": [
        {
          "indexed": true,
          "name": "lad",
          "type": "address"
        },
        {
          "indexed": false,
          "name": "cup",
          "type": "bytes32"
        }
      ],
      "name": "LogNewCup",
      "type": "event"
    },
    {
      "anonymous": true,
      "inputs": [
        {
          "indexed": true,
          "name": "sig",
          "type": "bytes4"
        },
        {
          "indexed": true,
          "name": "guy",
          "type": "address"
        },
        {
          "indexed": true,
          "name": "foo",
          "type": "bytes32"
        },
        {
          "indexed": true,
          "name": "bar",
          "type": "bytes32"
        },
        {
          "indexed": false,
          "name": "wad",
          "type": "uint256"
        },
        {
          "indexed": false,
          "name": "fax",
          "type": "bytes"
        }
      ],
      "name": "LogNote",
      "type": "event"
    },
    {
      "anonymous": false,
      "inputs": [
        {
          "indexed": true,
          "name": "authority",
          "type": "address"
        }
      ],
      "name": "LogSetAuthority",
      "type": "event"
    },
    {
      "anonymous": false,
      "inputs": [
        {
          "indexed": true,
          "name": "owner",
          "type": "address"
        }
      ],
      "name": "LogSetOwner",
      "type": "event"
    },
    {
      "constant": true,
      "inputs": [
        {
          "name": "cup",
          "type": "bytes32"
        }
      ],
      "name": "lad",
      "outputs": [
        {
          "name": "",
          "type": "address"
        }
      ],
      "payable": false,
      "stateMutability": "view",
      "type": "function"
    },
    {
      "constant": true,
      "inputs": [
        {
          "name": "cup",
          "type": "bytes32"
        }
      ],
      "name": "ink",
      "outputs": [
        {
          "name": "",
          "type": "uint256"
        }
      ],
      "payable": false,
      "stateMutability": "view",
      "type": "function"
    },
    {
      "constant": false,
      "inputs": [
        {
          "name": "cup",
          "type": "bytes32"
        }
      ],
      "name": "tab",
      "outputs": [
        {
          "name": "",
          "type": "uint256"
        }
      ],
      "payable": false,
      "stateMutability": "nonpayable",
      "type": "function"
    },
    {
      "constant": false,
      "inputs": [
        {
          "name": "cup",
          "type": "bytes32"
        }
      ],
      "name": "rap",
      "outputs": [
        {
          "name": "",
          "type": "uint256"
        }
      ],
      "payable": false,
      "stateMutability": "nonpayable",
      "type": "function"
    },
    {
      "constant": false,
      "inputs": [],
      "name": "din",
      "outputs": [
        {
          "name": "",
          "type": "uint256"
        }
      ],
      "payable": false,
      "stateMutability": "nonpayable",
      "type": "function"
    },
    {
      "constant": true,
      "inputs": [],
      "name": "air",
      "outputs": [
        {
          "name": "",
          "type": "uint256"
        }
      ],
      "payable": false,
      "stateMutability": "view",
      "type": "function"
    },
    {
      "constant": true,
      "inputs": [],
      "name": "pie",
      "outputs": [
        {
          "name": "",
          "type": "uint256"
        }
      ],
      "payable": false,
      "stateMutability": "view",
      "type": "function"
    },
    {
      "constant": true,
      "inputs": [],
      "name": "era",
      "outputs": [
        {
          "name": "",
          "type": "uint256"
        }
      ],
      "payable": false,
      "stateMutability": "view",
      "type": "function"
    },
    {
      "constant": false,
      "inputs": [
        {
          "name": "param",
          "type": "bytes32"
        },
        {
          "name": "val",
          "type": "uint256"
        }
      ],
      "name": "mold",
      "outputs": [],
      "payable": false,
      "stateMutability": "nonpayable",
      "type": "function"
    },
    {
      "constant": false,
      "inputs": [
        {
          "name": "pip_",
          "type": "address"
        }
      ],
      "name": "setPip",
      "outputs": [],
      "payable": false,
      "stateMutability": "nonpayable",
      "type": "function"
    },
    {
      "constant": false,
      "inputs": [
        {
          "name": "pep_",
          "type": "address"
        }
      ],
      "name": "setPep",
      "outputs": [],
      "payable": false,
      "stateMutability": "nonpayable",
      "type": "function"
    },
    {
      "constant": false,
      "inputs": [
        {
          "name": "vox_",
          "type": "address"
        }
      ],
      "name": "setVox",
      "outputs": [],
      "payable": false,
      "stateMutability": "nonpayable",
      "type": "function"
    },
    {
      "constant": false,
      "inputs": [
        {
          "name": "tap_",
          "type": "address"
        }
      ],
      "name": "turn",
      "outputs": [],
      "payable": false,
      "stateMutability": "nonpayable",
      "type": "function"
    },
    {
      "constant": true,
      "inputs": [],
      "name": "per",
      "outputs": [
        {
          "name": "ray",
          "type": "uint256"
        }
      ],
      "payable": false,
      "stateMutability": "view",
      "type": "function"
    },
    {
      "constant": true,
      "inputs": [
        {
          "name": "wad",
          "type": "uint256"
        }
      ],
      "name": "ask",
      "outputs": [
        {
          "name": "",
          "type": "uint256"
        }
      ],
      "payable": false,
      "stateMutability": "view",
      "type": "function"
    },
    {
      "constant": true,
      "inputs": [
        {
          "name": "wad",
          "type": "uint256"
        }
      ],
      "name": "bid",
      "outputs": [
        {
          "name": "",
          "type": "uint256"
        }
      ],
      "payable": false,
      "stateMutability": "view",
      "type": "function"
    },
    {
      "constant": false,
      "inputs": [
        {
          "name": "wad",
          "type": "uint256"
        }
      ],
      "name": "join",
      "outputs": [],
      "payable": false,
      "stateMutability": "nonpayable",
      "type": "function"
    },
    {
      "constant": false,
      "inputs": [
        {
          "name": "wad",
          "type": "uint256"
        }
      ],
      "name": "exit",
      "outputs": [],
      "payable": false,
      "stateMutability": "nonpayable",
      "type": "function"
    },
    {
      "constant": false,
      "inputs": [],
      "name": "chi",
      "outputs": [
        {
          "name": "",
          "type": "uint256"
        }
      ],
      "payable": false,
      "stateMutability": "nonpayable",
      "type": "function"
    },
    {
      "constant": false,
      "inputs": [],
      "name": "rhi",
      "outputs": [
        {
          "name": "",
          "type": "uint256"
        }
      ],
      "payable": false,
      "stateMutability": "nonpayable",
      "type": "function"
    },
    {
      "constant": false,
      "inputs": [],
      "name": "drip",
      "outputs": [],
      "payable": false,
      "stateMutability": "nonpayable",
      "type": "function"
    },
    {
      "constant": true,
      "inputs": [],
      "name": "tag",
      "outputs": [
        {
          "name": "wad",
          "type": "uint256"
        }
      ],
      "payable": false,
      "stateMutability": "view",
      "type": "function"
    },
    {
      "constant": false,
      "inputs": [
        {
          "name": "cup",
          "type": "bytes32"
        }
      ],
      "name": "safe",
      "outputs": [
        {
          "name": "",
          "type": "bool"
        }
      ],
      "payable": false,
      "stateMutability": "nonpayable",
      "type": "function"
    },
    {
      "constant": false,
      "inputs": [],
      "name": "open",
      "outputs": [
        {
          "name": "cup",
          "type": "bytes32"
        }
      ],
      "payable": false,
      "stateMutability": "nonpayable",
      "type": "function"
    },
    {
      "constant": false,
      "inputs": [
        {
          "name": "cup",
          "type": "bytes32"
        },
        {
          "name": "guy",
          "type": "address"
        }
      ],
      "name": "give",
      "outputs": [],
      "payable": false,
      "stateMutability": "nonpayable",
      "type": "function"
    },
    {
      "constant": false,
      "inputs": [
        {
          "name": "cup",
          "type": "bytes32"
        },
        {
          "name": "wad",
          "type": "uint256"
        }
      ],
      "name": "lock",
      "outputs": [],
      "payable": false,
      "stateMutability": "nonpayable",
      "type": "function"
    },
    {
      "constant": false,
      "inputs": [
        {
          "name": "cup",
          "type": "bytes32"
        },
        {
          "name": "wad",
          "type": "uint256"
        }
      ],
      "name": "free",
      "outputs": [],
      "payable": false,
      "stateMutability": "nonpayable",
      "type": "function"
    },
    {
      "constant": false,
      "inputs": [
        {
          "name": "cup",
          "type": "bytes32"
        },
        {
          "name": "wad",
          "type": "uint256"
        }
      ],
      "name": "draw",
      "outputs": [],
      "payable": false,
      "stateMutability": "nonpayable",
      "type": "function"
    },
    {
      "constant": false,
      "inputs": [
        {
          "name": "cup",
          "type": "bytes32"
        },
        {
          "name": "wad",
          "type": "uint256"
        }
      ],
      "name": "wipe",
      "outputs": [],
      "payable": false,
      "stateMutability": "nonpayable",
      "type": "function"
    },
    {
      "constant": false,
      "inputs": [
        {
          "name": "cup",
          "type": "bytes32"
        }
      ],
      "name": "shut",
      "outputs": [],
      "payable": false,
      "stateMutability": "nonpayable",
      "type": "function"
    },
    {
      "constant": false,
      "inputs": [
        {
          "name": "cup",
          "type": "bytes32"
        }
      ],
      "name": "bite",
      "outputs": [],
      "payable": false,
      "stateMutability": "nonpayable",
      "type": "function"
    },
    {
      "constant": false,
      "inputs": [
        {
          "name": "fit_",
          "type": "uint256"
        },
        {
          "name": "jam",
          "type": "uint256"
        }
      ],
      "name": "cage",
      "outputs": [],
      "payable": false,
      "stateMutability": "nonpayable",
      "type": "function"
    },
    {
      "constant": false,
      "inputs": [],
      "name": "flow",
      "outputs": [],
      "payable": false,
      "stateMutability": "nonpayable",
      "type": "function"
    }
  ],
  "bytecode": "0x60806040523480156200001157600080fd5b50604051610120806200568683398101806040528101908080519060200190929190805190602001909291908051906020019092919080519060200190929190805190602001909291908051906020019092919080519060200190929190805190602001909291908051906020019092919050505033600160006101000a81548173ffffffffffffffffffffffffffffffffffffffff021916908373ffffffffffffffffffffffffffffffffffffffff1602179055503373ffffffffffffffffffffffffffffffffffffffff167fce241d7ca1f669fee44b6fc00b8eba2df3bb514eed0f6f668f8f89096e81ed9460405160405180910390a285600560006101000a81548173ffffffffffffffffffffffffffffffffffffffff021916908373ffffffffffffffffffffffffffffffffffffffff16021790555086600460006101000a81548173ffffffffffffffffffffffffffffffffffffffff021916908373ffffffffffffffffffffffffffffffffffffffff16021790555088600260006101000a81548173ffffffffffffffffffffffffffffffffffffffff021916908373ffffffffffffffffffffffffffffffffffffffff16021790555087600360006101000a81548173ffffffffffffffffffffffffffffffffffffffff021916908373ffffffffffffffffffffffffffffffffffffffff16021790555084600660006101000a81548173ffffffffffffffffffffffffffffffffffffffff021916908373ffffffffffffffffffffffffffffffffffffffff16021790555080600b60006101000a81548173ffffffffffffffffffffffffffffffffffffffff021916908373ffffffffffffffffffffffffffffffffffffffff16021790555083600860006101000a81548173ffffffffffffffffffffffffffffffffffffffff021916908373ffffffffffffffffffffffffffffffffffffffff16021790555082600960006101000a81548173ffffffffffffffffffffffffffffffffffffffff021916908373ffffffffffffffffffffffffffffffffffffffff16021790555081600760006101000a81548173ffffffffffffffffffffffffffffffffffffffff021916908373ffffffffffffffffffffffffffffffffffffffff1602179055506b033b2e3c9fd0803ce8000000600c819055506b033b2e3c9fd0803ce8000000600e819055506b033b2e3c9fd0803ce8000000600f819055506b033b2e3c9fd0803ce8000000601081905550670de0b6b3a76400006011819055506b033b2e3c9fd0803ce80000006015819055506b033b2e3c9fd0803ce8000000601681905550620003ed62000402640100000000026401000000009004565b6014819055505050505050505050506200040a565b600042905090565b61526c806200041a6000396000f3006080604052600436106102ca576000357c0100000000000000000000000000000000000000000000000000000000900463ffffffff168063049878f3146102cf578063071bafb5146102fc5780630f8a771e1461035357806312d43a51146103aa57806313af403514610401578063143e55e0146104445780631f3634ed1461046f57806320aba08b146104b457806327e7e21e146104df578063338a02611461050a578063343aad8214610535578063355274ea1461054c57806340cc885414610577578063440f19ba146105a8578063454a2ab3146105e35780634995543114610624578063509bf2bf1461064f57806351f910661461067a5780636626b26d146106a557806367550a35146106d45780636c32c0a61461072b5780636f78ee0d1461075657806373b381011461079b5780637a9e5e4b146107d65780637bd2bea7146108195780637e74325f146108705780637ec9c3b8146108b35780637f8661a1146108de57806382bf9a751461090b5780638a95a7461461094e5780638ceedb47146109795780638cf0c191146109b05780638da5cb5b146109db5780639166cba414610a3257806392b0d72114610a8957806399c8d55614610ac45780639f678cca14610aef578063a5cd184e14610b06578063ab0783da14610b41578063ace237f514610b6c578063b2a1449b14610bc3578063b3b77a5114610bf2578063b84d210614610c2d578063baa8529c14610c5e578063bf7e214f14610caf578063c8e13bb414610d06578063c92aecc414610d31578063cf48d1a614610d5c578063d741e2f914610d9f578063d9c27cc614610df6578063ddca3f4314610e39578063de5f551714610e64578063e0ae96e914610ed5578063e47e7e6614610f00578063e95823ad14610f41578063f03c7c6e14610f8a578063f7c8d63414610fe1578063fcfff16f14611026578063fd22103114611059578063fdac0025146110b0575b600080fd5b3480156102db57600080fd5b506102fa60048036038101908080359060200190929190505050611136565b005b34801561030857600080fd5b50610311611443565b604051808273ffffffffffffffffffffffffffffffffffffffff1673ffffffffffffffffffffffffffffffffffffffff16815260200191505060405180910390f35b34801561035f57600080fd5b50610368611469565b604051808273ffffffffffffffffffffffffffffffffffffffff1673ffffffffffffffffffffffffffffffffffffffff16815260200191505060405180910390f35b3480156103b657600080fd5b506103bf61148f565b604051808273ffffffffffffffffffffffffffffffffffffffff1673ffffffffffffffffffffffffffffffffffffffff16815260200191505060405180910390f35b34801561040d57600080fd5b50610442600480360381019080803573ffffffffffffffffffffffffffffffffffffffff1690602001909291905050506114b5565b005b34801561045057600080fd5b50610459611600565b6040518082815260200191505060405180910390f35b34801561047b57600080fd5b5061049e6004803603810190808035600019169060200190929190505050611608565b6040518082815260200191505060405180910390f35b3480156104c057600080fd5b506104c9611630565b6040518082815260200191505060405180910390f35b3480156104eb57600080fd5b506104f4611636565b6040518082815260200191505060405180910390f35b34801561051657600080fd5b5061051f611735565b6040518082815260200191505060405180910390f35b34801561054157600080fd5b5061054a611747565b005b34801561055857600080fd5b506105616118d4565b6040518082815260200191505060405180910390f35b34801561058357600080fd5b506105a660048036038101908080356000191690602001909291905050506118da565b005b3480156105b457600080fd5b506105e1600480360381019080803560001916906020019092919080359060200190929190505050611dbb565b005b3480156105ef57600080fd5b5061060e600480360381019080803590602001909291905050506121fb565b6040518082815260200191505060405180910390f35b34801561063057600080fd5b50610639612234565b6040518082815260200191505060405180910390f35b34801561065b57600080fd5b5061066461223a565b6040518082815260200191505060405180910390f35b34801561068657600080fd5b5061068f612240565b6040518082815260200191505060405180910390f35b3480156106b157600080fd5b506106ba612339565b604051808215151515815260200191505060405180910390f35b3480156106e057600080fd5b506106e961234c565b604051808273ffffffffffffffffffffffffffffffffffffffff1673ffffffffffffffffffffffffffffffffffffffff16815260200191505060405180910390f35b34801561073757600080fd5b50610740612372565b6040518082815260200191505060405180910390f35b34801561076257600080fd5b506107856004803603810190808035600019169060200190929190505050612378565b6040518082815260200191505060405180910390f35b3480156107a757600080fd5b506107d46004803603810190808035600019169060200190929190803590602001909291905050506123c1565b005b3480156107e257600080fd5b50610817600480360381019080803573ffffffffffffffffffffffffffffffffffffffff1690602001909291905050506128a5565b005b34801561082557600080fd5b5061082e6129ee565b604051808273ffffffffffffffffffffffffffffffffffffffff1673ffffffffffffffffffffffffffffffffffffffff16815260200191505060405180910390f35b34801561087c57600080fd5b506108b1600480360381019080803573ffffffffffffffffffffffffffffffffffffffff169060200190929190505050612a14565b005b3480156108bf57600080fd5b506108c8612b78565b6040518082815260200191505060405180910390f35b3480156108ea57600080fd5b5061090960048036038101908080359060200190929190505050612d2a565b005b34801561091757600080fd5b5061094c600480360381019080803573ffffffffffffffffffffffffffffffffffffffff169060200190929190505050613003565b005b34801561095a57600080fd5b5061096361319c565b6040518082815260200191505060405180910390f35b34801561098557600080fd5b506109ae600480360381019080803590602001909291908035906020019092919050505061329b565b005b3480156109bc57600080fd5b506109c561358e565b6040518082815260200191505060405180910390f35b3480156109e757600080fd5b506109f0613594565b604051808273ffffffffffffffffffffffffffffffffffffffff1673ffffffffffffffffffffffffffffffffffffffff16815260200191505060405180910390f35b348015610a3e57600080fd5b50610a476135ba565b604051808273ffffffffffffffffffffffffffffffffffffffff1673ffffffffffffffffffffffffffffffffffffffff16815260200191505060405180910390f35b348015610a9557600080fd5b50610ac26004803603810190808035600019169060200190929190803590602001909291905050506135e0565b005b348015610ad057600080fd5b50610ad9613927565b6040518082815260200191505060405180910390f35b348015610afb57600080fd5b50610b0461392d565b005b348015610b1257600080fd5b50610b3f600480360381019080803560001916906020019092919080359060200190929190505050613be5565b005b348015610b4d57600080fd5b50610b56613eab565b6040518082815260200191505060405180910390f35b348015610b7857600080fd5b50610b81613eb1565b604051808273ffffffffffffffffffffffffffffffffffffffff1673ffffffffffffffffffffffffffffffffffffffff16815260200191505060405180910390f35b348015610bcf57600080fd5b50610bd8613ed7565b604051808215151515815260200191505060405180910390f35b348015610bfe57600080fd5b50610c2b600480360381019080803560001916906020019092919080359060200190929190505050613eea565b005b348015610c3957600080fd5b50610c5c6004803603810190808035600019169060200190929190505050614140565b005b348015610c6a57600080fd5b50610cad6004803603810190808035600019169060200190929190803573ffffffffffffffffffffffffffffffffffffffff169060200190929190505050614331565b005b348015610cbb57600080fd5b50610cc46144e3565b604051808273ffffffffffffffffffffffffffffffffffffffff1673ffffffffffffffffffffffffffffffffffffffff16815260200191505060405180910390f35b348015610d1257600080fd5b50610d1b614508565b6040518082815260200191505060405180910390f35b348015610d3d57600080fd5b50610d4661450e565b6040518082815260200191505060405180910390f35b348015610d6857600080fd5b50610d9d600480360381019080803573ffffffffffffffffffffffffffffffffffffffff169060200190929190505050614520565b005b348015610dab57600080fd5b50610db46146b9565b604051808273ffffffffffffffffffffffffffffffffffffffff1673ffffffffffffffffffffffffffffffffffffffff16815260200191505060405180910390f35b348015610e0257600080fd5b50610e37600480360381019080803573ffffffffffffffffffffffffffffffffffffffff1690602001909291905050506146df565b005b348015610e4557600080fd5b50610e4e614878565b6040518082815260200191505060405180910390f35b348015610e7057600080fd5b50610e93600480360381019080803560001916906020019092919050505061487e565b604051808273ffffffffffffffffffffffffffffffffffffffff1673ffffffffffffffffffffffffffffffffffffffff16815260200191505060405180910390f35b348015610ee157600080fd5b50610eea6148c6565b6040518082815260200191505060405180910390f35b348015610f0c57600080fd5b50610f2b600480360381019080803590602001909291905050506148e0565b6040518082815260200191505060405180910390f35b348015610f4d57600080fd5b50610f706004803603810190808035600019169060200190929190505050614905565b604051808215151515815260200191505060405180910390f35b348015610f9657600080fd5b50610f9f614a16565b604051808273ffffffffffffffffffffffffffffffffffffffff1673ffffffffffffffffffffffffffffffffffffffff16815260200191505060405180910390f35b348015610fed57600080fd5b506110106004803603810190808035600019169060200190929190505050614a3c565b6040518082815260200191505060405180910390f35b34801561103257600080fd5b5061103b614a74565b60405180826000191660001916815260200191505060405180910390f35b34801561106557600080fd5b5061106e614c15565b604051808273ffffffffffffffffffffffffffffffffffffffff1673ffffffffffffffffffffffffffffffffffffffff16815260200191505060405180910390f35b3480156110bc57600080fd5b506110df6004803603810190808035600019169060200190929190505050614c3b565b604051808573ffffffffffffffffffffffffffffffffffffffff1673ffffffffffffffffffffffffffffffffffffffff16815260200184815260200183815260200182815260200194505050505060405180910390f35b600080600060043592506024359150349050816000191683600019163373ffffffffffffffffffffffffffffffffffffffff166000357fffffffff00000000000000000000000000000000000000000000000000000000167bffffffffffffffffffffffffffffffffffffffffffffffffffffffff19168460003660405180848152602001806020018281038252848482818152602001925080828437820191505094505050505060405180910390a4601260009054906101000a900460ff1615151561120257600080fd5b600061120d856148e0565b11151561121957600080fd5b600560009054906101000a900473ffffffffffffffffffffffffffffffffffffffff1673ffffffffffffffffffffffffffffffffffffffff166323b872dd3330611262886148e0565b6040518463ffffffff167c0100000000000000000000000000000000000000000000000000000000028152600401808473ffffffffffffffffffffffffffffffffffffffff1673ffffffffffffffffffffffffffffffffffffffff1681526020018373ffffffffffffffffffffffffffffffffffffffff1673ffffffffffffffffffffffffffffffffffffffff1681526020018281526020019350505050602060405180830381600087803b15801561131a57600080fd5b505af115801561132e573d6000803e3d6000fd5b505050506040513d602081101561134457600080fd5b8101908080519060200190929190505050151561136057600080fd5b600460009054906101000a900473ffffffffffffffffffffffffffffffffffffffff1673ffffffffffffffffffffffffffffffffffffffff166340c10f1933866040518363ffffffff167c0100000000000000000000000000000000000000000000000000000000028152600401808373ffffffffffffffffffffffffffffffffffffffff1673ffffffffffffffffffffffffffffffffffffffff16815260200182815260200192505050600060405180830381600087803b15801561142557600080fd5b505af1158015611439573d6000803e3d6000fd5b5050505050505050565b600360009054906101000a900473ffffffffffffffffffffffffffffffffffffffff1681565b600460009054906101000a900473ffffffffffffffffffffffffffffffffffffffff1681565b600660009054906101000a900473ffffffffffffffffffffffffffffffffffffffff1681565b6114e3336000357fffffffff0000000000000000000000000000000000000000000000000000000016614c8b565b1515611557576040517f08c379a00000000000000000000000000000000000000000000000000000000081526004018080602001828103825260148152602001807f64732d617574682d756e617574686f72697a656400000000000000000000000081525060200191505060405180910390fd5b80600160006101000a81548173ffffffffffffffffffffffffffffffffffffffff021916908373ffffffffffffffffffffffffffffffffffffffff160217905550600160009054906101000a900473ffffffffffffffffffffffffffffffffffffffff1673ffffffffffffffffffffffffffffffffffffffff167fce241d7ca1f669fee44b6fc00b8eba2df3bb514eed0f6f668f8f89096e81ed9460405160405180910390a250565b600042905090565b6000601960008360001916600019168152602001908152602001600020600101549050919050565b60145481565b6000600460009054906101000a900473ffffffffffffffffffffffffffffffffffffffff1673ffffffffffffffffffffffffffffffffffffffff166370a08231306040518263ffffffff167c0100000000000000000000000000000000000000000000000000000000028152600401808273ffffffffffffffffffffffffffffffffffffffff1673ffffffffffffffffffffffffffffffffffffffff168152602001915050602060405180830381600087803b1580156116f557600080fd5b505af1158015611709573d6000803e3d6000fd5b505050506040513d602081101561171f57600080fd5b8101908080519060200190929190505050905090565b600061173f61392d565b601654905090565b600080600060043592506024359150349050816000191683600019163373ffffffffffffffffffffffffffffffffffffffff166000357fffffffff00000000000000000000000000000000000000000000000000000000167bffffffffffffffffffffffffffffffffffffffffffffffffffffffff19168460003660405180848152602001806020018281038252848482818152602001925080828437820191505094505050505060405180910390a4611825336000357fffffffff0000000000000000000000000000000000000000000000000000000016614c8b565b1515611899576040517f08c379a00000000000000000000000000000000000000000000000000000000081526004018080602001828103825260148152602001807f64732d617574682d756e617574686f72697a656400000000000000000000000081525060200191505060405180910390fd5b601260009054906101000a900460ff1615156118b457600080fd5b6001601260016101000a81548160ff021916908315150217905550505050565b600d5481565b600080600080600060043592506024359150349050816000191683600019163373ffffffffffffffffffffffffffffffffffffffff166000357fffffffff00000000000000000000000000000000000000000000000000000000167bffffffffffffffffffffffffffffffffffffffffffffffffffffffff19168460003660405180848152602001806020018281038252848482818152602001925080828437820191505094505050505060405180910390a461199686614905565b15806119ae5750601260009054906101000a900460ff165b15156119b957600080fd5b6119c286614a3c565b9450600360009054906101000a900473ffffffffffffffffffffffffffffffffffffffff1673ffffffffffffffffffffffffffffffffffffffff166340c10f19600a60009054906101000a900473ffffffffffffffffffffffffffffffffffffffff16876040518363ffffffff167c0100000000000000000000000000000000000000000000000000000000028152600401808373ffffffffffffffffffffffffffffffffffffffff1673ffffffffffffffffffffffffffffffffffffffff16815260200182815260200192505050600060405180830381600087803b158015611aab57600080fd5b505af1158015611abf573d6000803e3d6000fd5b50505050611aed60175460196000896000191660001916815260200190815260200160002060020154614f02565b601781905550600060196000886000191660001916815260200190815260200160002060020181905550600060196000886000191660001916815260200190815260200160002060030181905550611c20611c13611b4d87600c54614f87565b600760009054906101000a900473ffffffffffffffffffffffffffffffffffffffff1673ffffffffffffffffffffffffffffffffffffffff1663495d32cb6040518163ffffffff167c0100000000000000000000000000000000000000000000000000000000028152600401602060405180830381600087803b158015611bd357600080fd5b505af1158015611be7573d6000803e3d6000fd5b505050506040513d6020811015611bfd57600080fd5b8101908080519060200190929190505050614f87565b611c1b612240565b614fd3565b935060196000876000191660001916815260200190815260200160002060010154841115611c6a576019600087600019166000191681526020019081526020016000206001015493505b600460009054906101000a900473ffffffffffffffffffffffffffffffffffffffff1673ffffffffffffffffffffffffffffffffffffffff1663b753a98c600a60009054906101000a900473ffffffffffffffffffffffffffffffffffffffff16866040518363ffffffff167c0100000000000000000000000000000000000000000000000000000000028152600401808373ffffffffffffffffffffffffffffffffffffffff1673ffffffffffffffffffffffffffffffffffffffff16815260200182815260200192505050600060405180830381600087803b158015611d5157600080fd5b505af1158015611d65573d6000803e3d6000fd5b50505050611d916019600088600019166000191681526020019081526020016000206001015485614f02565b60196000886000191660001916815260200190815260200160002060010181905550505050505050565b600080600060043592506024359150349050816000191683600019163373ffffffffffffffffffffffffffffffffffffffff166000357fffffffff00000000000000000000000000000000000000000000000000000000167bffffffffffffffffffffffffffffffffffffffffffffffffffffffff19168460003660405180848152602001806020018281038252848482818152602001925080828437820191505094505050505060405180910390a4601260009054906101000a900460ff16151515611e8757600080fd5b60196000866000191660001916815260200190815260200160002060000160009054906101000a900473ffffffffffffffffffffffffffffffffffffffff1673ffffffffffffffffffffffffffffffffffffffff163373ffffffffffffffffffffffffffffffffffffffff16141515611eff57600080fd5b6000611f1285611f0d61450e565b614fd3565b111515611f1e57600080fd5b611f5660196000876000191660001916815260200190815260200160002060020154611f5186611f4c61450e565b614fd3565b615013565b60196000876000191660001916815260200190815260200160002060020181905550611f94601754611f8f86611f8a61450e565b614fd3565b615013565b601781905550611fd260196000876000191660001916815260200190815260200160002060030154611fcd86611fc8611735565b614fd3565b615013565b60196000876000191660001916815260200190815260200160002060030181905550600260009054906101000a900473ffffffffffffffffffffffffffffffffffffffff1673ffffffffffffffffffffffffffffffffffffffff166340c10f1960196000886000191660001916815260200190815260200160002060000160009054906101000a900473ffffffffffffffffffffffffffffffffffffffff16866040518363ffffffff167c0100000000000000000000000000000000000000000000000000000000028152600401808373ffffffffffffffffffffffffffffffffffffffff1673ffffffffffffffffffffffffffffffffffffffff16815260200182815260200192505050600060405180830381600087803b1580156120f757600080fd5b505af115801561210b573d6000803e3d6000fd5b5050505061211885614905565b151561212357600080fd5b600d54600260009054906101000a900473ffffffffffffffffffffffffffffffffffffffff1673ffffffffffffffffffffffffffffffffffffffff166318160ddd6040518163ffffffff167c0100000000000000000000000000000000000000000000000000000000028152600401602060405180830381600087803b1580156121ac57600080fd5b505af11580156121c0573d6000803e3d6000fd5b505050506040513d60208110156121d657600080fd5b8101908080519060200190929190505050111515156121f457600080fd5b5050505050565b600061222d8261222861220c612b78565b612223670de0b6b3a7640000600202601154614f02565b615098565b614f87565b9050919050565b60185481565b600c5481565b6000601260009054906101000a900460ff166123305761232b612261612b78565b600860009054906101000a900473ffffffffffffffffffffffffffffffffffffffff1673ffffffffffffffffffffffffffffffffffffffff166357de26a46040518163ffffffff167c0100000000000000000000000000000000000000000000000000000000028152600401602060405180830381600087803b1580156122e757600080fd5b505af11580156122fb573d6000803e3d6000fd5b505050506040513d602081101561231157600080fd5b810190808051906020019092919050505060019004615098565b612334565b6013545b905090565b601260009054906101000a900460ff1681565b600760009054906101000a900473ffffffffffffffffffffffffffffffffffffffff1681565b60115481565b60006123ba6123ac601960008560001916600019168152602001908152602001600020600301546123a7611735565b614f87565b6123b584614a3c565b614f02565b9050919050565b60008060008060008060043592506024359150349050816000191683600019163373ffffffffffffffffffffffffffffffffffffffff166000357fffffffff00000000000000000000000000000000000000000000000000000000167bffffffffffffffffffffffffffffffffffffffffffffffffffffffff19168460003660405180848152602001806020018281038252848482818152602001925080828437820191505094505050505060405180910390a4601260009054906101000a900460ff1615151561249157600080fd5b6124b4876124af6124a18b612378565b6124aa8c614a3c565b614fd3565b614f87565b95506124ee601960008a60001916600019168152602001908152602001600020600201546124e9896124e461450e565b614fd3565b614f02565b601960008a600019166000191681526020019081526020016000206002018190555061252c6017546125278961252261450e565b614fd3565b614f02565b601781905550612573601960008a600019166000191681526020019081526020016000206003015461256e6125618a8a615013565b612569611735565b614fd3565b614f02565b601960008a6000191660001916815260200190815260200160002060030181905550600260009054906101000a900473ffffffffffffffffffffffffffffffffffffffff1673ffffffffffffffffffffffffffffffffffffffff16639dc29fac33896040518363ffffffff167c0100000000000000000000000000000000000000000000000000000000028152600401808373ffffffffffffffffffffffffffffffffffffffff1673ffffffffffffffffffffffffffffffffffffffff16815260200182815260200192505050600060405180830381600087803b15801561265a57600080fd5b505af115801561266e573d6000803e3d6000fd5b50505050600960009054906101000a900473ffffffffffffffffffffffffffffffffffffffff1673ffffffffffffffffffffffffffffffffffffffff166359e02dd76040518163ffffffff167c01000000000000000000000000000000000000000000000000000000000281526004016040805180830381600087803b1580156126f757600080fd5b505af115801561270b573d6000803e3d6000fd5b505050506040513d604081101561272157600080fd5b8101908080519060200190929190805190602001909291905050509450945083801561275557506000600102856000191614155b1561289b57600660009054906101000a900473ffffffffffffffffffffffffffffffffffffffff1673ffffffffffffffffffffffffffffffffffffffff1663bb35783b33600b60009054906101000a900473ffffffffffffffffffffffffffffffffffffffff166127ca8a8a600190046150dc565b6040518463ffffffff167c0100000000000000000000000000000000000000000000000000000000028152600401808473ffffffffffffffffffffffffffffffffffffffff1673ffffffffffffffffffffffffffffffffffffffff1681526020018373ffffffffffffffffffffffffffffffffffffffff1673ffffffffffffffffffffffffffffffffffffffff1681526020018281526020019350505050600060405180830381600087803b15801561288257600080fd5b505af1158015612896573d6000803e3d6000fd5b505050505b5050505050505050565b6128d3336000357fffffffff0000000000000000000000000000000000000000000000000000000016614c8b565b1515612947576040517f08c379a00000000000000000000000000000000000000000000000000000000081526004018080602001828103825260148152602001807f64732d617574682d756e617574686f72697a656400000000000000000000000081525060200191505060405180910390fd5b806000806101000a81548173ffffffffffffffffffffffffffffffffffffffff021916908373ffffffffffffffffffffffffffffffffffffffff1602179055506000809054906101000a900473ffffffffffffffffffffffffffffffffffffffff1673ffffffffffffffffffffffffffffffffffffffff167f1abebea81bfa2637f28358c371278fb15ede7ea8dd28d2e03b112ff6d936ada460405160405180910390a250565b600560009054906101000a900473ffffffffffffffffffffffffffffffffffffffff1681565b600080600060043592506024359150349050816000191683600019163373ffffffffffffffffffffffffffffffffffffffff166000357fffffffff00000000000000000000000000000000000000000000000000000000167bffffffffffffffffffffffffffffffffffffffffffffffffffffffff19168460003660405180848152602001806020018281038252848482818152602001925080828437820191505094505050505060405180910390a46000600a60009054906101000a900473ffffffffffffffffffffffffffffffffffffffff1673ffffffffffffffffffffffffffffffffffffffff16141515612b0b57600080fd5b60008473ffffffffffffffffffffffffffffffffffffffff1614151515612b3157600080fd5b83600a60006101000a81548173ffffffffffffffffffffffffffffffffffffffff021916908373ffffffffffffffffffffffffffffffffffffffff16021790555050505050565b600080600460009054906101000a900473ffffffffffffffffffffffffffffffffffffffff1673ffffffffffffffffffffffffffffffffffffffff166318160ddd6040518163ffffffff167c0100000000000000000000000000000000000000000000000000000000028152600401602060405180830381600087803b158015612c0157600080fd5b505af1158015612c15573d6000803e3d6000fd5b505050506040513d6020811015612c2b57600080fd5b810190808051906020019092919050505014612d1757612d12612c4c61319c565b600460009054906101000a900473ffffffffffffffffffffffffffffffffffffffff1673ffffffffffffffffffffffffffffffffffffffff166318160ddd6040518163ffffffff167c0100000000000000000000000000000000000000000000000000000000028152600401602060405180830381600087803b158015612cd257600080fd5b505af1158015612ce6573d6000803e3d6000fd5b505050506040513d6020811015612cfc57600080fd5b8101908080519060200190929190505050614fd3565b612d25565b6b033b2e3c9fd0803ce80000005b905090565b600080600060043592506024359150349050816000191683600019163373ffffffffffffffffffffffffffffffffffffffff166000357fffffffff00000000000000000000000000000000000000000000000000000000167bffffffffffffffffffffffffffffffffffffffffffffffffffffffff19168460003660405180848152602001806020018281038252848482818152602001925080828437820191505094505050505060405180910390a4601260009054906101000a900460ff161580612e025750601260019054906101000a900460ff165b1515612e0d57600080fd5b600560009054906101000a900473ffffffffffffffffffffffffffffffffffffffff1673ffffffffffffffffffffffffffffffffffffffff1663a9059cbb33612e55876121fb565b6040518363ffffffff167c0100000000000000000000000000000000000000000000000000000000028152600401808373ffffffffffffffffffffffffffffffffffffffff1673ffffffffffffffffffffffffffffffffffffffff16815260200182815260200192505050602060405180830381600087803b158015612eda57600080fd5b505af1158015612eee573d6000803e3d6000fd5b505050506040513d6020811015612f0457600080fd5b81019080805190602001909291905050501515612f2057600080fd5b600460009054906101000a900473ffffffffffffffffffffffffffffffffffffffff1673ffffffffffffffffffffffffffffffffffffffff16639dc29fac33866040518363ffffffff167c0100000000000000000000000000000000000000000000000000000000028152600401808373ffffffffffffffffffffffffffffffffffffffff1673ffffffffffffffffffffffffffffffffffffffff16815260200182815260200192505050600060405180830381600087803b158015612fe557600080fd5b505af1158015612ff9573d6000803e3d6000fd5b5050505050505050565b600080600060043592506024359150349050816000191683600019163373ffffffffffffffffffffffffffffffffffffffff166000357fffffffff00000000000000000000000000000000000000000000000000000000167bffffffffffffffffffffffffffffffffffffffffffffffffffffffff19168460003660405180848152602001806020018281038252848482818152602001925080828437820191505094505050505060405180910390a46130e1336000357fffffffff0000000000000000000000000000000000000000000000000000000016614c8b565b1515613155576040517f08c379a00000000000000000000000000000000000000000000000000000000081526004018080602001828103825260148152602001807f64732d617574682d756e617574686f72697a656400000000000000000000000081525060200191505060405180910390fd5b83600860006101000a81548173ffffffffffffffffffffffffffffffffffffffff021916908373ffffffffffffffffffffffffffffffffffffffff16021790555050505050565b6000600560009054906101000a900473ffffffffffffffffffffffffffffffffffffffff1673ffffffffffffffffffffffffffffffffffffffff166370a08231306040518263ffffffff167c0100000000000000000000000000000000000000000000000000000000028152600401808273ffffffffffffffffffffffffffffffffffffffff1673ffffffffffffffffffffffffffffffffffffffff168152602001915050602060405180830381600087803b15801561325b57600080fd5b505af115801561326f573d6000803e3d6000fd5b505050506040513d602081101561328557600080fd5b8101908080519060200190929190505050905090565b600080600060043592506024359150349050816000191683600019163373ffffffffffffffffffffffffffffffffffffffff166000357fffffffff00000000000000000000000000000000000000000000000000000000167bffffffffffffffffffffffffffffffffffffffffffffffffffffffff19168460003660405180848152602001806020018281038252848482818152602001925080828437820191505094505050505060405180910390a4613379336000357fffffffff0000000000000000000000000000000000000000000000000000000016614c8b565b15156133ed576040517f08c379a00000000000000000000000000000000000000000000000000000000081526004018080602001828103825260148152602001807f64732d617574682d756e617574686f72697a656400000000000000000000000081525060200191505060405180910390fd5b601260009054906101000a900460ff1615801561340b575060008514155b151561341657600080fd5b6001601260006101000a81548160ff0219169083151502179055506b033b2e3c9fd0803ce8000000600c81905550670de0b6b3a764000060118190555084601381905550600560009054906101000a900473ffffffffffffffffffffffffffffffffffffffff1673ffffffffffffffffffffffffffffffffffffffff1663a9059cbb600a60009054906101000a900473ffffffffffffffffffffffffffffffffffffffff16866040518363ffffffff167c0100000000000000000000000000000000000000000000000000000000028152600401808373ffffffffffffffffffffffffffffffffffffffff1673ffffffffffffffffffffffffffffffffffffffff16815260200182815260200192505050602060405180830381600087803b15801561354157600080fd5b505af1158015613555573d6000803e3d6000fd5b505050506040513d602081101561356b57600080fd5b8101908080519060200190929190505050151561358757600080fd5b5050505050565b60175481565b600160009054906101000a900473ffffffffffffffffffffffffffffffffffffffff1681565b600260009054906101000a900473ffffffffffffffffffffffffffffffffffffffff1681565b600080600060043592506024359150349050816000191683600019163373ffffffffffffffffffffffffffffffffffffffff166000357fffffffff00000000000000000000000000000000000000000000000000000000167bffffffffffffffffffffffffffffffffffffffffffffffffffffffff19168460003660405180848152602001806020018281038252848482818152602001925080828437820191505094505050505060405180910390a46136be336000357fffffffff0000000000000000000000000000000000000000000000000000000016614c8b565b1515613732576040517f08c379a00000000000000000000000000000000000000000000000000000000081526004018080602001828103825260148152602001807f64732d617574682d756e617574686f72697a656400000000000000000000000081525060200191505060405180910390fd5b7f63617000000000000000000000000000000000000000000000000000000000008560001916141561376a5783600d8190555061391f565b7f6d61740000000000000000000000000000000000000000000000000000000000856000191614156137bd576b033b2e3c9fd0803ce800000084101515156137b157600080fd5b83600e8190555061391e565b7f746178000000000000000000000000000000000000000000000000000000000085600019161415613818576b033b2e3c9fd0803ce8000000841015151561380457600080fd5b61380c61392d565b83600f8190555061391d565b7f666565000000000000000000000000000000000000000000000000000000000085600019161415613873576b033b2e3c9fd0803ce8000000841015151561385f57600080fd5b61386761392d565b8360108190555061391c565b7f6178650000000000000000000000000000000000000000000000000000000000856000191614156138c6576b033b2e3c9fd0803ce800000084101515156138ba57600080fd5b83600c8190555061391b565b7f67617000000000000000000000000000000000000000000000000000000000008560001916141561391557670de0b6b3a7640000841015151561390957600080fd5b8360118190555061391a565b613920565b5b5b5b5b5b5b5050505050565b600f5481565b600080600080600080600060043592506024359150349050816000191683600019163373ffffffffffffffffffffffffffffffffffffffff166000357fffffffff00000000000000000000000000000000000000000000000000000000167bffffffffffffffffffffffffffffffffffffffffffffffffffffffff19168460003660405180848152602001806020018281038252848482818152602001925080828437820191505094505050505060405180910390a4601260009054906101000a900460ff16156139fd57613bdc565b613a05611600565b9650601454870395506000861415613a1c57613bdc565b866014819055506b033b2e3c9fd0803ce800000094506b033b2e3c9fd0803ce8000000600f54141515613b84576015549350613a5a600f5487615118565b9450613a6860155486614f87565b601581905550600260009054906101000a900473ffffffffffffffffffffffffffffffffffffffff1673ffffffffffffffffffffffffffffffffffffffff166340c10f19600a60009054906101000a900473ffffffffffffffffffffffffffffffffffffffff16613ae6613ade60155489614f02565b601754614f87565b6040518363ffffffff167c0100000000000000000000000000000000000000000000000000000000028152600401808373ffffffffffffffffffffffffffffffffffffffff1673ffffffffffffffffffffffffffffffffffffffff16815260200182815260200192505050600060405180830381600087803b158015613b6b57600080fd5b505af1158015613b7f573d6000803e3d6000fd5b505050505b6b033b2e3c9fd0803ce8000000601054141515613bb357613bb085613bab60105489615118565b614f87565b94505b6b033b2e3c9fd0803ce800000085141515613bdb57613bd460165486614f87565b6016819055505b5b50505050505050565b600080600060043592506024359150349050816000191683600019163373ffffffffffffffffffffffffffffffffffffffff166000357fffffffff00000000000000000000000000000000000000000000000000000000167bffffffffffffffffffffffffffffffffffffffffffffffffffffffff19168460003660405180848152602001806020018281038252848482818152602001925080828437820191505094505050505060405180910390a460196000866000191660001916815260200190815260200160002060000160009054906101000a900473ffffffffffffffffffffffffffffffffffffffff1673ffffffffffffffffffffffffffffffffffffffff163373ffffffffffffffffffffffffffffffffffffffff16141515613d0d57600080fd5b613d356019600087600019166000191681526020019081526020016000206001015485614f02565b60196000876000191660001916815260200190815260200160002060010181905550600460009054906101000a900473ffffffffffffffffffffffffffffffffffffffff1673ffffffffffffffffffffffffffffffffffffffff1663b753a98c33866040518363ffffffff167c0100000000000000000000000000000000000000000000000000000000028152600401808373ffffffffffffffffffffffffffffffffffffffff1673ffffffffffffffffffffffffffffffffffffffff16815260200182815260200192505050600060405180830381600087803b158015613e1c57600080fd5b505af1158015613e30573d6000803e3d6000fd5b50505050613e3d85614905565b1515613e4857600080fd5b6000601960008760001916600019168152602001908152602001600020600101541480613e9957506611c37937e0800060196000876000191660001916815260200190815260200160002060010154115b1515613ea457600080fd5b5050505050565b600e5481565b600960009054906101000a900473ffffffffffffffffffffffffffffffffffffffff1681565b601260019054906101000a900460ff1681565b600080600060043592506024359150349050816000191683600019163373ffffffffffffffffffffffffffffffffffffffff166000357fffffffff00000000000000000000000000000000000000000000000000000000167bffffffffffffffffffffffffffffffffffffffffffffffffffffffff19168460003660405180848152602001806020018281038252848482818152602001925080828437820191505094505050505060405180910390a4601260009054906101000a900460ff16151515613fb657600080fd5b613fde6019600087600019166000191681526020019081526020016000206001015485615013565b60196000876000191660001916815260200190815260200160002060010181905550600460009054906101000a900473ffffffffffffffffffffffffffffffffffffffff1673ffffffffffffffffffffffffffffffffffffffff1663f2d5d56b33866040518363ffffffff167c0100000000000000000000000000000000000000000000000000000000028152600401808373ffffffffffffffffffffffffffffffffffffffff1673ffffffffffffffffffffffffffffffffffffffff16815260200182815260200192505050600060405180830381600087803b1580156140c557600080fd5b505af11580156140d9573d6000803e3d6000fd5b50505050600060196000876000191660001916815260200190815260200160002060010154148061412e57506611c37937e0800060196000876000191660001916815260200190815260200160002060010154115b151561413957600080fd5b5050505050565b600080600060043592506024359150349050816000191683600019163373ffffffffffffffffffffffffffffffffffffffff166000357fffffffff00000000000000000000000000000000000000000000000000000000167bffffffffffffffffffffffffffffffffffffffffffffffffffffffff19168460003660405180848152602001806020018281038252848482818152602001925080828437820191505094505050505060405180910390a4601260009054906101000a900460ff1615151561420c57600080fd5b60196000856000191660001916815260200190815260200160002060000160009054906101000a900473ffffffffffffffffffffffffffffffffffffffff1673ffffffffffffffffffffffffffffffffffffffff163373ffffffffffffffffffffffffffffffffffffffff1614151561428457600080fd5b600061428f85614a3c565b1415156142a9576142a8846142a386614a3c565b6123c1565b5b60006142b485611608565b1415156142ce576142cd846142c886611608565b613be5565b5b601960008560001916600019168152602001908152602001600020600080820160006101000a81549073ffffffffffffffffffffffffffffffffffffffff0219169055600182016000905560028201600090556003820160009055505050505050565b600080600060043592506024359150349050816000191683600019163373ffffffffffffffffffffffffffffffffffffffff166000357fffffffff00000000000000000000000000000000000000000000000000000000167bffffffffffffffffffffffffffffffffffffffffffffffffffffffff19168460003660405180848152602001806020018281038252848482818152602001925080828437820191505094505050505060405180910390a460196000866000191660001916815260200190815260200160002060000160009054906101000a900473ffffffffffffffffffffffffffffffffffffffff1673ffffffffffffffffffffffffffffffffffffffff163373ffffffffffffffffffffffffffffffffffffffff1614151561445957600080fd5b60008473ffffffffffffffffffffffffffffffffffffffff161415151561447f57600080fd5b8360196000876000191660001916815260200190815260200160002060000160006101000a81548173ffffffffffffffffffffffffffffffffffffffff021916908373ffffffffffffffffffffffffffffffffffffffff1602179055505050505050565b6000809054906101000a900473ffffffffffffffffffffffffffffffffffffffff1681565b60135481565b600061451861392d565b601554905090565b600080600060043592506024359150349050816000191683600019163373ffffffffffffffffffffffffffffffffffffffff166000357fffffffff00000000000000000000000000000000000000000000000000000000167bffffffffffffffffffffffffffffffffffffffffffffffffffffffff19168460003660405180848152602001806020018281038252848482818152602001925080828437820191505094505050505060405180910390a46145fe336000357fffffffff0000000000000000000000000000000000000000000000000000000016614c8b565b1515614672576040517f08c379a00000000000000000000000000000000000000000000000000000000081526004018080602001828103825260148152602001807f64732d617574682d756e617574686f72697a656400000000000000000000000081525060200191505060405180910390fd5b83600760006101000a81548173ffffffffffffffffffffffffffffffffffffffff021916908373ffffffffffffffffffffffffffffffffffffffff16021790555050505050565b600860009054906101000a900473ffffffffffffffffffffffffffffffffffffffff1681565b600080600060043592506024359150349050816000191683600019163373ffffffffffffffffffffffffffffffffffffffff166000357fffffffff00000000000000000000000000000000000000000000000000000000167bffffffffffffffffffffffffffffffffffffffffffffffffffffffff19168460003660405180848152602001806020018281038252848482818152602001925080828437820191505094505050505060405180910390a46147bd336000357fffffffff0000000000000000000000000000000000000000000000000000000016614c8b565b1515614831576040517f08c379a00000000000000000000000000000000000000000000000000000000081526004018080602001828103825260148152602001807f64732d617574682d756e617574686f72697a656400000000000000000000000081525060200191505060405180910390fd5b83600960006101000a81548173ffffffffffffffffffffffffffffffffffffffff021916908373ffffffffffffffffffffffffffffffffffffffff16021790555050505050565b60105481565b600060196000836000191660001916815260200190815260200160002060000160009054906101000a900473ffffffffffffffffffffffffffffffffffffffff169050919050565b60006148db6017546148d661450e565b614f87565b905090565b60006148fe826148f96148f1612b78565b601154615098565b614f87565b9050919050565b600080600080614924614916612240565b61491f87611608565b614f87565b92506149f8600760009054906101000a900473ffffffffffffffffffffffffffffffffffffffff1673ffffffffffffffffffffffffffffffffffffffff1663495d32cb6040518163ffffffff167c0100000000000000000000000000000000000000000000000000000000028152600401602060405180830381600087803b1580156149af57600080fd5b505af11580156149c3573d6000803e3d6000fd5b505050506040513d60208110156149d957600080fd5b81019080805190602001909291905050506149f387614a3c565b614f87565b9150614a0682600e54614f87565b9050808310159350505050919050565b600b60009054906101000a900473ffffffffffffffffffffffffffffffffffffffff1681565b6000614a6d60196000846000191660001916815260200190815260200160002060020154614a6861450e565b614f87565b9050919050565b60008060008060043592506024359150349050816000191683600019163373ffffffffffffffffffffffffffffffffffffffff166000357fffffffff00000000000000000000000000000000000000000000000000000000167bffffffffffffffffffffffffffffffffffffffffffffffffffffffff19168460003660405180848152602001806020018281038252848482818152602001925080828437820191505094505050505060405180910390a4601260009054906101000a900460ff16151515614b4157600080fd5b614b4e6018546001615013565b60188190555060185460010293503360196000866000191660001916815260200190815260200160002060000160006101000a81548173ffffffffffffffffffffffffffffffffffffffff021916908373ffffffffffffffffffffffffffffffffffffffff1602179055503373ffffffffffffffffffffffffffffffffffffffff167f89b8893b806db50897c8e2362c71571cfaeb9761ee40727f683f1793cda9df168560405180826000191660001916815260200191505060405180910390a250505090565b600a60009054906101000a900473ffffffffffffffffffffffffffffffffffffffff1681565b60196020528060005260406000206000915090508060000160009054906101000a900473ffffffffffffffffffffffffffffffffffffffff16908060010154908060020154908060030154905084565b60003073ffffffffffffffffffffffffffffffffffffffff168373ffffffffffffffffffffffffffffffffffffffff161415614cca5760019050614efc565b600160009054906101000a900473ffffffffffffffffffffffffffffffffffffffff1673ffffffffffffffffffffffffffffffffffffffff168373ffffffffffffffffffffffffffffffffffffffff161415614d295760019050614efc565b600073ffffffffffffffffffffffffffffffffffffffff166000809054906101000a900473ffffffffffffffffffffffffffffffffffffffff1673ffffffffffffffffffffffffffffffffffffffff161415614d885760009050614efc565b6000809054906101000a900473ffffffffffffffffffffffffffffffffffffffff1673ffffffffffffffffffffffffffffffffffffffff1663b70096138430856040518463ffffffff167c0100000000000000000000000000000000000000000000000000000000028152600401808473ffffffffffffffffffffffffffffffffffffffff1673ffffffffffffffffffffffffffffffffffffffff1681526020018373ffffffffffffffffffffffffffffffffffffffff1673ffffffffffffffffffffffffffffffffffffffff168152602001827bffffffffffffffffffffffffffffffffffffffffffffffffffffffff19167bffffffffffffffffffffffffffffffffffffffffffffffffffffffff191681526020019350505050602060405180830381600087803b158015614ebe57600080fd5b505af1158015614ed2573d6000803e3d6000fd5b505050506040513d6020811015614ee857600080fd5b810190808051906020019092919050505090505b92915050565b60008282840391508111151515614f81576040517f08c379a00000000000000000000000000000000000000000000000000000000081526004018080602001828103825260158152602001807f64732d6d6174682d7375622d756e646572666c6f77000000000000000000000081525060200191505060405180910390fd5b92915050565b60006b033b2e3c9fd0803ce8000000614fc1614fa385856151a7565b60026b033b2e3c9fd0803ce8000000811515614fbb57fe5b04615013565b811515614fca57fe5b04905092915050565b600081615001614fef856b033b2e3c9fd0803ce80000006151a7565b600285811515614ffb57fe5b04615013565b81151561500a57fe5b04905092915050565b60008282840191508110151515615092576040517f08c379a00000000000000000000000000000000000000000000000000000000081526004018080602001828103825260148152602001807f64732d6d6174682d6164642d6f766572666c6f7700000000000000000000000081525060200191505060405180910390fd5b92915050565b6000670de0b6b3a76400006150ca6150b085856151a7565b6002670de0b6b3a76400008115156150c457fe5b04615013565b8115156150d357fe5b04905092915050565b6000816151066150f485670de0b6b3a76400006151a7565b60028581151561510057fe5b04615013565b81151561510f57fe5b04905092915050565b60008060028381151561512757fe5b061415615140576b033b2e3c9fd0803ce8000000615142565b825b905060028281151561515057fe5b0491505b6000821415156151a1576151688384614f87565b9250600060028381151561517857fe5b0614151561518d5761518a8184614f87565b90505b60028281151561519957fe5b049150615154565b92915050565b6000808214806151c6575082828385029250828115156151c357fe5b04145b151561523a576040517f08c379a00000000000000000000000000000000000000000000000000000000081526004018080602001828103825260148152602001807f64732d6d6174682d6d756c2d6f766572666c6f7700000000000000000000000081525060200191505060405180910390fd5b929150505600a165627a7a7230582036f99e6dcee3818f5ad84767623a04ade18ab40d2910062cd7bbe105410fc9d60029",
  "source": "/// tub.sol -- simplified CDP engine (baby brother of `vat')\n\n// Copyright (C) 2017  Nikolai Mushegian <nikolai@dapphub.com>\n// Copyright (C) 2017  Daniel Brockman <daniel@dapphub.com>\n// Copyright (C) 2017  Rain Break <rainbreak@riseup.net>\n\n// This program is free software: you can redistribute it and/or modify\n// it under the terms of the GNU General Public License as published by\n// the Free Software Foundation, either version 3 of the License, or\n// (at your option) any later version.\n\n// This program is distributed in the hope that it will be useful,\n// but WITHOUT ANY WARRANTY; without even the implied warranty of\n// MERCHANTABILITY or FITNESS FOR A PARTICULAR PURPOSE.  See the\n// GNU General Public License for more details.\n\n// You should have received a copy of the GNU General Public License\n// along with this program.  If not, see <http://www.gnu.org/licenses/>.\n\npragma solidity ^0.4.18;\n\nimport \"../lib/dappsys-monolithic/thing.sol\";\nimport \"../lib/dappsys-monolithic/token.sol\";\nimport \"../lib/dappsys-monolithic/value.sol\";\n\nimport \"./vox.sol\";\n\ncontract SaiTubEvents {\n    event LogNewCup(address indexed lad, bytes32 cup);\n}\n\ncontract SaiTub is DSThing, SaiTubEvents {\n    DSToken  public  sai;  // Stablecoin\n    DSToken  public  sin;  // Debt (negative sai)\n\n    DSToken  public  skr;  // Abstracted collateral\n    ERC20    public  gem;  // Underlying collateral\n\n    DSToken  public  gov;  // Governance token\n\n    SaiVox   public  vox;  // Target price feed\n    DSValue  public  pip;  // Reference price feed\n    DSValue  public  pep;  // Governance price feed\n\n    address  public  tap;  // Liquidator\n    address  public  pit;  // Governance Vault\n\n    uint256  public  axe;  // Liquidation penalty\n    uint256  public  cap;  // Debt ceiling\n    uint256  public  mat;  // Liquidation ratio\n    uint256  public  tax;  // Stability fee\n    uint256  public  fee;  // Governance fee\n    uint256  public  gap;  // Join-Exit Spread\n\n    bool     public  off;  // Cage flag\n    bool     public  out;  // Post cage exit\n\n    uint256  public  fit;  // REF per SKR (just before settlement)\n\n    uint256  public  rho;  // Time of last drip\n    uint256         _chi;  // Accumulated Tax Rates\n    uint256         _rhi;  // Accumulated Tax + Fee Rates\n    uint256  public  rum;  // Total normalised debt\n\n    uint256                   public  cupi;\n    mapping (bytes32 => Cup)  public  cups;\n\n    struct Cup {\n        address  lad;      // CDP owner\n        uint256  ink;      // Locked collateral (in SKR)\n        uint256  art;      // Outstanding normalised debt (tax only)\n        uint256  ire;      // Outstanding normalised debt\n    }\n\n    function lad(bytes32 cup) public view returns (address) {\n        return cups[cup].lad;\n    }\n    function ink(bytes32 cup) public view returns (uint) {\n        return cups[cup].ink;\n    }\n    function tab(bytes32 cup) public returns (uint) {\n        return rmul(cups[cup].art, chi());\n    }\n    function rap(bytes32 cup) public returns (uint) {\n        return sub(rmul(cups[cup].ire, rhi()), tab(cup));\n    }\n\n    // Total CDP Debt\n    function din() public returns (uint) {\n        return rmul(rum, chi());\n    }\n    // Backing collateral\n    function air() public view returns (uint) {\n        return skr.balanceOf(this);\n    }\n    // Raw collateral\n    function pie() public view returns (uint) {\n        return gem.balanceOf(this);\n    }\n\n    //------------------------------------------------------------------\n\n    function SaiTub(\n        DSToken  sai_,\n        DSToken  sin_,\n        DSToken  skr_,\n        ERC20    gem_,\n        DSToken  gov_,\n        DSValue  pip_,\n        DSValue  pep_,\n        SaiVox   vox_,\n        address  pit_\n    ) public {\n        gem = gem_;\n        skr = skr_;\n\n        sai = sai_;\n        sin = sin_;\n\n        gov = gov_;\n        pit = pit_;\n\n        pip = pip_;\n        pep = pep_;\n        vox = vox_;\n\n        axe = RAY;\n        mat = RAY;\n        tax = RAY;\n        fee = RAY;\n        gap = WAD;\n\n        _chi = RAY;\n        _rhi = RAY;\n\n        rho = era();\n    }\n\n    function era() public constant returns (uint) {\n        return block.timestamp;\n    }\n\n    //--Risk-parameter-config-------------------------------------------\n\n    function mold(bytes32 param, uint val) public note auth {\n        if      (param == 'cap') cap = val;\n        else if (param == 'mat') { require(val >= RAY); mat = val; }\n        else if (param == 'tax') { require(val >= RAY); drip(); tax = val; }\n        else if (param == 'fee') { require(val >= RAY); drip(); fee = val; }\n        else if (param == 'axe') { require(val >= RAY); axe = val; }\n        else if (param == 'gap') { require(val >= WAD); gap = val; }\n        else return;\n    }\n\n    //--Price-feed-setters----------------------------------------------\n\n    function setPip(DSValue pip_) public note auth {\n        pip = pip_;\n    }\n    function setPep(DSValue pep_) public note auth {\n        pep = pep_;\n    }\n    function setVox(SaiVox vox_) public note auth {\n        vox = vox_;\n    }\n\n    //--Tap-setter------------------------------------------------------\n    function turn(address tap_) public note {\n        require(tap  == 0);\n        require(tap_ != 0);\n        tap = tap_;\n    }\n\n    //--Collateral-wrapper----------------------------------------------\n\n    // Wrapper ratio (gem per skr)\n    function per() public view returns (uint ray) {\n        return skr.totalSupply() == 0 ? RAY : rdiv(pie(), skr.totalSupply());\n    }\n    // Join price (gem per skr)\n    function ask(uint wad) public view returns (uint) {\n        return rmul(wad, wmul(per(), gap));\n    }\n    // Exit price (gem per skr)\n    function bid(uint wad) public view returns (uint) {\n        return rmul(wad, wmul(per(), sub(2 * WAD, gap)));\n    }\n    function join(uint wad) public note {\n        require(!off);\n        require(ask(wad) > 0);\n        require(gem.transferFrom(msg.sender, this, ask(wad)));\n        skr.mint(msg.sender, wad);\n    }\n    function exit(uint wad) public note {\n        require(!off || out);\n        require(gem.transfer(msg.sender, bid(wad)));\n        skr.burn(msg.sender, wad);\n    }\n\n    //--Stability-fee-accumulation--------------------------------------\n\n    // Accumulated Rates\n    function chi() public returns (uint) {\n        drip();\n        return _chi;\n    }\n    function rhi() public returns (uint) {\n        drip();\n        return _rhi;\n    }\n    function drip() public note {\n        if (off) return;\n\n        var rho_ = era();\n        var age = rho_ - rho;\n        if (age == 0) return;    // optimised\n        rho = rho_;\n\n        var inc = RAY;\n\n        if (tax != RAY) {  // optimised\n            var _chi_ = _chi;\n            inc = rpow(tax, age);\n            _chi = rmul(_chi, inc);\n            sai.mint(tap, rmul(sub(_chi, _chi_), rum));\n        }\n\n        // optimised\n        if (fee != RAY) inc = rmul(inc, rpow(fee, age));\n        if (inc != RAY) _rhi = rmul(_rhi, inc);\n    }\n\n\n    //--CDP-risk-indicator----------------------------------------------\n\n    // Abstracted collateral price (ref per skr)\n    function tag() public view returns (uint wad) {\n        return off ? fit : wmul(per(), uint(pip.read()));\n    }\n    // Returns true if cup is well-collateralized\n    function safe(bytes32 cup) public returns (bool) {\n        var pro = rmul(tag(), ink(cup));\n        var con = rmul(vox.par(), tab(cup));\n        var min = rmul(con, mat);\n        return pro >= min;\n    }\n\n\n    //--CDP-operations--------------------------------------------------\n\n    function open() public note returns (bytes32 cup) {\n        require(!off);\n        cupi = add(cupi, 1);\n        cup = bytes32(cupi);\n        cups[cup].lad = msg.sender;\n        LogNewCup(msg.sender, cup);\n    }\n    function give(bytes32 cup, address guy) public note {\n        require(msg.sender == cups[cup].lad);\n        require(guy != 0);\n        cups[cup].lad = guy;\n    }\n\n    function lock(bytes32 cup, uint wad) public note {\n        require(!off);\n        cups[cup].ink = add(cups[cup].ink, wad);\n        skr.pull(msg.sender, wad);\n        require(cups[cup].ink == 0 || cups[cup].ink > 0.005 ether);\n    }\n    function free(bytes32 cup, uint wad) public note {\n        require(msg.sender == cups[cup].lad);\n        cups[cup].ink = sub(cups[cup].ink, wad);\n        skr.push(msg.sender, wad);\n        require(safe(cup));\n        require(cups[cup].ink == 0 || cups[cup].ink > 0.005 ether);\n    }\n\n    function draw(bytes32 cup, uint wad) public note {\n        require(!off);\n        require(msg.sender == cups[cup].lad);\n        require(rdiv(wad, chi()) > 0);\n\n        cups[cup].art = add(cups[cup].art, rdiv(wad, chi()));\n        rum = add(rum, rdiv(wad, chi()));\n\n        cups[cup].ire = add(cups[cup].ire, rdiv(wad, rhi()));\n        sai.mint(cups[cup].lad, wad);\n\n        require(safe(cup));\n        require(sai.totalSupply() <= cap);\n    }\n    function wipe(bytes32 cup, uint wad) public note {\n        require(!off);\n\n        var owe = rmul(wad, rdiv(rap(cup), tab(cup)));\n\n        cups[cup].art = sub(cups[cup].art, rdiv(wad, chi()));\n        rum = sub(rum, rdiv(wad, chi()));\n\n        cups[cup].ire = sub(cups[cup].ire, rdiv(add(wad, owe), rhi()));\n        sai.burn(msg.sender, wad);\n\n        var (val, ok) = pep.peek();\n        if (ok && val != 0) gov.move(msg.sender, pit, wdiv(owe, uint(val)));\n    }\n\n    function shut(bytes32 cup) public note {\n        require(!off);\n        require(msg.sender == cups[cup].lad);\n        if (tab(cup) != 0) wipe(cup, tab(cup));\n        if (ink(cup) != 0) free(cup, ink(cup));\n        delete cups[cup];\n    }\n\n    function bite(bytes32 cup) public note {\n        require(!safe(cup) || off);\n\n        // Take on all of the debt, except unpaid fees\n        var rue = tab(cup);\n        sin.mint(tap, rue);\n        rum = sub(rum, cups[cup].art);\n        cups[cup].art = 0;\n        cups[cup].ire = 0;\n\n        // Amount owed in SKR, including liquidation penalty\n        var owe = rdiv(rmul(rmul(rue, axe), vox.par()), tag());\n\n        if (owe > cups[cup].ink) {\n            owe = cups[cup].ink;\n        }\n\n        skr.push(tap, owe);\n        cups[cup].ink = sub(cups[cup].ink, owe);\n    }\n\n    //------------------------------------------------------------------\n\n    function cage(uint fit_, uint jam) public note auth {\n        require(!off && fit_ != 0);\n        off = true;\n        axe = RAY;\n        gap = WAD;\n        fit = fit_;         // ref per skr\n        require(gem.transfer(tap, jam));\n    }\n    function flow() public note auth {\n        require(off);\n        out = true;\n    }\n}",
  "sourcePath": "/Users/Michael/Projects/cdp.auction/cdp-auction/contracts/sai/tub.sol",
  "compiler": {
    "name": "solc",
    "version": "0.4.24+commit.e67f0147.Emscripten.clang"
  },
  "schemaVersion": "2.0.1",
  "updatedAt": "2019-01-10T05:08:16.700Z"
}